{
	"voting.sol": {
		"Voting": {
			"abi": [
				{
					"inputs": [],
					"stateMutability": "nonpayable",
					"type": "constructor"
				},
				{
					"inputs": [],
					"name": "candidatecount",
					"outputs": [
						{
							"internalType": "uint256",
							"name": "",
							"type": "uint256"
						}
					],
					"stateMutability": "view",
					"type": "function"
				},
				{
					"inputs": [
						{
							"internalType": "uint256",
							"name": "",
							"type": "uint256"
						}
					],
					"name": "candidates",
					"outputs": [
						{
							"internalType": "uint256",
							"name": "id",
							"type": "uint256"
						},
						{
							"internalType": "string",
							"name": "name",
							"type": "string"
						},
						{
							"internalType": "uint256",
							"name": "votecount",
							"type": "uint256"
						}
					],
					"stateMutability": "view",
					"type": "function"
				},
				{
					"inputs": [
						{
							"internalType": "uint256",
							"name": "_candidateId",
							"type": "uint256"
						}
					],
					"name": "vote",
					"outputs": [],
					"stateMutability": "nonpayable",
					"type": "function"
				},
				{
					"inputs": [
						{
							"internalType": "address",
							"name": "",
							"type": "address"
						}
					],
					"name": "voters",
					"outputs": [
						{
							"internalType": "bool",
							"name": "",
							"type": "bool"
						}
					],
					"stateMutability": "view",
					"type": "function"
				}
			],
			"devdoc": {
				"kind": "dev",
				"methods": {},
				"version": 1
			},
			"evm": {
				"assembly": "    /* \"voting.sol\":28:905  contract Voting{... */\n  mstore(0x40, 0x80)\n    /* \"voting.sol\":450:648  constructor () public {... */\n  callvalue\n  dup1\n  iszero\n  tag_1\n  jumpi\n  0x00\n  dup1\n  revert\ntag_1:\n  pop\n    /* \"voting.sol\":484:505  newCandidate(\"Anmol\") */\n  tag_4\n  mload(0x40)\n  dup1\n  0x40\n  add\n  0x40\n  mstore\n  dup1\n  0x05\n  dup2\n  mstore\n  0x20\n  add\n  0x416e6d6f6c000000000000000000000000000000000000000000000000000000\n  dup2\n  mstore\n  pop\n    /* \"voting.sol\":484:496  newCandidate */\n  shl(0x20, tag_5)\n    /* \"voting.sol\":484:505  newCandidate(\"Anmol\") */\n  0x20\n  shr\n  jump\t// in\ntag_4:\n    /* \"voting.sol\":517:537  newCandidate(\"Anik\") */\n  tag_6\n  mload(0x40)\n  dup1\n  0x40\n  add\n  0x40\n  mstore\n  dup1\n  0x04\n  dup2\n  mstore\n  0x20\n  add\n  0x416e696b00000000000000000000000000000000000000000000000000000000\n  dup2\n  mstore\n  pop\n    /* \"voting.sol\":517:529  newCandidate */\n  shl(0x20, tag_5)\n    /* \"voting.sol\":517:537  newCandidate(\"Anik\") */\n  0x20\n  shr\n  jump\t// in\ntag_6:\n    /* \"voting.sol\":549:572  newCandidate(\"Rakshit\") */\n  tag_7\n  mload(0x40)\n  dup1\n  0x40\n  add\n  0x40\n  mstore\n  dup1\n  0x07\n  dup2\n  mstore\n  0x20\n  add\n  0x52616b7368697400000000000000000000000000000000000000000000000000\n  dup2\n  mstore\n  pop\n    /* \"voting.sol\":549:561  newCandidate */\n  shl(0x20, tag_5)\n    /* \"voting.sol\":549:572  newCandidate(\"Rakshit\") */\n  0x20\n  shr\n  jump\t// in\ntag_7:\n    /* \"voting.sol\":584:606  newCandidate(\"likhit\") */\n  tag_8\n  mload(0x40)\n  dup1\n  0x40\n  add\n  0x40\n  mstore\n  dup1\n  0x06\n  dup2\n  mstore\n  0x20\n  add\n  0x6c696b6869740000000000000000000000000000000000000000000000000000\n  dup2\n  mstore\n  pop\n    /* \"voting.sol\":584:596  newCandidate */\n  shl(0x20, tag_5)\n    /* \"voting.sol\":584:606  newCandidate(\"likhit\") */\n  0x20\n  shr\n  jump\t// in\ntag_8:\n    /* \"voting.sol\":618:639  newCandidate(\"harsh\") */\n  tag_9\n  mload(0x40)\n  dup1\n  0x40\n  add\n  0x40\n  mstore\n  dup1\n  0x05\n  dup2\n  mstore\n  0x20\n  add\n  0x6861727368000000000000000000000000000000000000000000000000000000\n  dup2\n  mstore\n  pop\n    /* \"voting.sol\":618:630  newCandidate */\n  shl(0x20, tag_5)\n    /* \"voting.sol\":618:639  newCandidate(\"harsh\") */\n  0x20\n  shr\n  jump\t// in\ntag_9:\n    /* \"voting.sol\":28:905  contract Voting{... */\n  jump(tag_10)\n    /* \"voting.sol\":276:443  function newCandidate (string memory _name) private {... */\ntag_5:\n    /* \"voting.sol\":340:354  candidatecount */\n  0x02\n  0x00\n    /* \"voting.sol\":340:357  candidatecount ++ */\n  dup2\n  sload\n  dup1\n  swap3\n  swap2\n  swap1\n  tag_12\n  swap1\n  tag_13\n  jump\t// in\ntag_12:\n  swap2\n  swap1\n  pop\n  sstore\n  pop\n    /* \"voting.sol\":398:432  Candidate(candidatecount, _name,0) */\n  mload(0x40)\n  dup1\n  0x60\n  add\n  0x40\n  mstore\n  dup1\n    /* \"voting.sol\":408:422  candidatecount */\n  sload(0x02)\n    /* \"voting.sol\":398:432  Candidate(candidatecount, _name,0) */\n  dup2\n  mstore\n  0x20\n  add\n    /* \"voting.sol\":424:429  _name */\n  dup3\n    /* \"voting.sol\":398:432  Candidate(candidatecount, _name,0) */\n  dup2\n  mstore\n  0x20\n  add\n    /* \"voting.sol\":430:431  0 */\n  0x00\n    /* \"voting.sol\":398:432  Candidate(candidatecount, _name,0) */\n  dup2\n  mstore\n  pop\n    /* \"voting.sol\":369:379  candidates */\n  0x01\n    /* \"voting.sol\":369:395  candidates[candidatecount] */\n  0x00\n    /* \"voting.sol\":380:394  candidatecount */\n  sload(0x02)\n    /* \"voting.sol\":369:395  candidates[candidatecount] */\n  dup2\n  mstore\n  0x20\n  add\n  swap1\n  dup2\n  mstore\n  0x20\n  add\n  0x00\n  keccak256\n    /* \"voting.sol\":369:432  candidates[candidatecount] = Candidate(candidatecount, _name,0) */\n  0x00\n  dup3\n  add\n  mload\n  dup2\n  0x00\n  add\n  sstore\n  0x20\n  dup3\n  add\n  mload\n  dup2\n  0x01\n  add\n  swap1\n  dup2\n  tag_14\n  swap2\n  swap1\n  tag_15\n  jump\t// in\ntag_14:\n  pop\n  0x40\n  dup3\n  add\n  mload\n  dup2\n  0x02\n  add\n  sstore\n  swap1\n  pop\n  pop\n    /* \"voting.sol\":276:443  function newCandidate (string memory _name) private {... */\n  pop\n  jump\t// out\n    /* \"#utility.yul\":7:187   */\ntag_16:\n    /* \"#utility.yul\":55:132   */\n  0x4e487b7100000000000000000000000000000000000000000000000000000000\n    /* \"#utility.yul\":52:53   */\n  0x00\n    /* \"#utility.yul\":45:133   */\n  mstore\n    /* \"#utility.yul\":152:156   */\n  0x11\n    /* \"#utility.yul\":149:150   */\n  0x04\n    /* \"#utility.yul\":142:157   */\n  mstore\n    /* \"#utility.yul\":176:180   */\n  0x24\n    /* \"#utility.yul\":173:174   */\n  0x00\n    /* \"#utility.yul\":166:181   */\n  revert\n    /* \"#utility.yul\":193:270   */\ntag_17:\n    /* \"#utility.yul\":230:237   */\n  0x00\n    /* \"#utility.yul\":259:264   */\n  dup2\n    /* \"#utility.yul\":248:264   */\n  swap1\n  pop\n    /* \"#utility.yul\":193:270   */\n  swap2\n  swap1\n  pop\n  jump\t// out\n    /* \"#utility.yul\":276:509   */\ntag_13:\n    /* \"#utility.yul\":315:318   */\n  0x00\n    /* \"#utility.yul\":338:362   */\n  tag_41\n    /* \"#utility.yul\":356:361   */\n  dup3\n    /* \"#utility.yul\":338:362   */\n  tag_17\n  jump\t// in\ntag_41:\n    /* \"#utility.yul\":329:362   */\n  swap2\n  pop\n    /* \"#utility.yul\":384:450   */\n  0xffffffffffffffffffffffffffffffffffffffffffffffffffffffffffffffff\n    /* \"#utility.yul\":377:382   */\n  dup3\n    /* \"#utility.yul\":374:451   */\n  sub\n    /* \"#utility.yul\":371:474   */\n  tag_42\n  jumpi\n    /* \"#utility.yul\":454:472   */\n  tag_43\n  tag_16\n  jump\t// in\ntag_43:\n    /* \"#utility.yul\":371:474   */\ntag_42:\n    /* \"#utility.yul\":501:502   */\n  0x01\n    /* \"#utility.yul\":494:499   */\n  dup3\n    /* \"#utility.yul\":490:503   */\n  add\n    /* \"#utility.yul\":483:503   */\n  swap1\n  pop\n    /* \"#utility.yul\":276:509   */\n  swap2\n  swap1\n  pop\n  jump\t// out\n    /* \"#utility.yul\":515:614   */\ntag_18:\n    /* \"#utility.yul\":567:573   */\n  0x00\n    /* \"#utility.yul\":601:606   */\n  dup2\n    /* \"#utility.yul\":595:607   */\n  mload\n    /* \"#utility.yul\":585:607   */\n  swap1\n  pop\n    /* \"#utility.yul\":515:614   */\n  swap2\n  swap1\n  pop\n  jump\t// out\n    /* \"#utility.yul\":620:800   */\ntag_19:\n    /* \"#utility.yul\":668:745   */\n  0x4e487b7100000000000000000000000000000000000000000000000000000000\n    /* \"#utility.yul\":665:666   */\n  0x00\n    /* \"#utility.yul\":658:746   */\n  mstore\n    /* \"#utility.yul\":765:769   */\n  0x41\n    /* \"#utility.yul\":762:763   */\n  0x04\n    /* \"#utility.yul\":755:770   */\n  mstore\n    /* \"#utility.yul\":789:793   */\n  0x24\n    /* \"#utility.yul\":786:787   */\n  0x00\n    /* \"#utility.yul\":779:794   */\n  revert\n    /* \"#utility.yul\":806:986   */\ntag_20:\n    /* \"#utility.yul\":854:931   */\n  0x4e487b7100000000000000000000000000000000000000000000000000000000\n    /* \"#utility.yul\":851:852   */\n  0x00\n    /* \"#utility.yul\":844:932   */\n  mstore\n    /* \"#utility.yul\":951:955   */\n  0x22\n    /* \"#utility.yul\":948:949   */\n  0x04\n    /* \"#utility.yul\":941:956   */\n  mstore\n    /* \"#utility.yul\":975:979   */\n  0x24\n    /* \"#utility.yul\":972:973   */\n  0x00\n    /* \"#utility.yul\":965:980   */\n  revert\n    /* \"#utility.yul\":992:1312   */\ntag_21:\n    /* \"#utility.yul\":1036:1042   */\n  0x00\n    /* \"#utility.yul\":1073:1074   */\n  0x02\n    /* \"#utility.yul\":1067:1071   */\n  dup3\n    /* \"#utility.yul\":1063:1075   */\n  div\n    /* \"#utility.yul\":1053:1075   */\n  swap1\n  pop\n    /* \"#utility.yul\":1120:1121   */\n  0x01\n    /* \"#utility.yul\":1114:1118   */\n  dup3\n    /* \"#utility.yul\":1110:1122   */\n  and\n    /* \"#utility.yul\":1141:1159   */\n  dup1\n    /* \"#utility.yul\":1131:1212   */\n  tag_48\n  jumpi\n    /* \"#utility.yul\":1197:1201   */\n  0x7f\n    /* \"#utility.yul\":1189:1195   */\n  dup3\n    /* \"#utility.yul\":1185:1202   */\n  and\n    /* \"#utility.yul\":1175:1202   */\n  swap2\n  pop\n    /* \"#utility.yul\":1131:1212   */\ntag_48:\n    /* \"#utility.yul\":1259:1261   */\n  0x20\n    /* \"#utility.yul\":1251:1257   */\n  dup3\n    /* \"#utility.yul\":1248:1262   */\n  lt\n    /* \"#utility.yul\":1228:1246   */\n  dup2\n    /* \"#utility.yul\":1225:1263   */\n  sub\n    /* \"#utility.yul\":1222:1306   */\n  tag_49\n  jumpi\n    /* \"#utility.yul\":1278:1296   */\n  tag_50\n  tag_20\n  jump\t// in\ntag_50:\n    /* \"#utility.yul\":1222:1306   */\ntag_49:\n    /* \"#utility.yul\":1043:1312   */\n  pop\n    /* \"#utility.yul\":992:1312   */\n  swap2\n  swap1\n  pop\n  jump\t// out\n    /* \"#utility.yul\":1318:1459   */\ntag_22:\n    /* \"#utility.yul\":1367:1371   */\n  0x00\n    /* \"#utility.yul\":1390:1393   */\n  dup2\n    /* \"#utility.yul\":1382:1393   */\n  swap1\n  pop\n    /* \"#utility.yul\":1413:1416   */\n  dup2\n    /* \"#utility.yul\":1410:1411   */\n  0x00\n    /* \"#utility.yul\":1403:1417   */\n  mstore\n    /* \"#utility.yul\":1447:1451   */\n  0x20\n    /* \"#utility.yul\":1444:1445   */\n  0x00\n    /* \"#utility.yul\":1434:1452   */\n  keccak256\n    /* \"#utility.yul\":1426:1452   */\n  swap1\n  pop\n    /* \"#utility.yul\":1318:1459   */\n  swap2\n  swap1\n  pop\n  jump\t// out\n    /* \"#utility.yul\":1465:1558   */\ntag_23:\n    /* \"#utility.yul\":1502:1508   */\n  0x00\n    /* \"#utility.yul\":1549:1551   */\n  0x20\n    /* \"#utility.yul\":1544:1546   */\n  0x1f\n    /* \"#utility.yul\":1537:1542   */\n  dup4\n    /* \"#utility.yul\":1533:1547   */\n  add\n    /* \"#utility.yul\":1529:1552   */\n  div\n    /* \"#utility.yul\":1519:1552   */\n  swap1\n  pop\n    /* \"#utility.yul\":1465:1558   */\n  swap2\n  swap1\n  pop\n  jump\t// out\n    /* \"#utility.yul\":1564:1671   */\ntag_24:\n    /* \"#utility.yul\":1608:1616   */\n  0x00\n    /* \"#utility.yul\":1658:1663   */\n  dup3\n    /* \"#utility.yul\":1652:1656   */\n  dup3\n    /* \"#utility.yul\":1648:1664   */\n  shl\n    /* \"#utility.yul\":1627:1664   */\n  swap1\n  pop\n    /* \"#utility.yul\":1564:1671   */\n  swap3\n  swap2\n  pop\n  pop\n  jump\t// out\n    /* \"#utility.yul\":1677:2070   */\ntag_25:\n    /* \"#utility.yul\":1746:1752   */\n  0x00\n    /* \"#utility.yul\":1796:1797   */\n  0x08\n    /* \"#utility.yul\":1784:1794   */\n  dup4\n    /* \"#utility.yul\":1780:1798   */\n  mul\n    /* \"#utility.yul\":1819:1916   */\n  tag_55\n    /* \"#utility.yul\":1849:1915   */\n  0xffffffffffffffffffffffffffffffffffffffffffffffffffffffffffffffff\n    /* \"#utility.yul\":1838:1847   */\n  dup3\n    /* \"#utility.yul\":1819:1916   */\n  tag_24\n  jump\t// in\ntag_55:\n    /* \"#utility.yul\":1937:1976   */\n  tag_56\n    /* \"#utility.yul\":1967:1975   */\n  dup7\n    /* \"#utility.yul\":1956:1965   */\n  dup4\n    /* \"#utility.yul\":1937:1976   */\n  tag_24\n  jump\t// in\ntag_56:\n    /* \"#utility.yul\":1925:1976   */\n  swap6\n  pop\n    /* \"#utility.yul\":2009:2013   */\n  dup1\n    /* \"#utility.yul\":2005:2014   */\n  not\n    /* \"#utility.yul\":1998:2003   */\n  dup5\n    /* \"#utility.yul\":1994:2015   */\n  and\n    /* \"#utility.yul\":1985:2015   */\n  swap4\n  pop\n    /* \"#utility.yul\":2058:2062   */\n  dup1\n    /* \"#utility.yul\":2048:2056   */\n  dup7\n    /* \"#utility.yul\":2044:2063   */\n  and\n    /* \"#utility.yul\":2037:2042   */\n  dup5\n    /* \"#utility.yul\":2034:2064   */\n  or\n    /* \"#utility.yul\":2024:2064   */\n  swap3\n  pop\n    /* \"#utility.yul\":1753:2070   */\n  pop\n  pop\n    /* \"#utility.yul\":1677:2070   */\n  swap4\n  swap3\n  pop\n  pop\n  pop\n  jump\t// out\n    /* \"#utility.yul\":2076:2136   */\ntag_26:\n    /* \"#utility.yul\":2104:2107   */\n  0x00\n    /* \"#utility.yul\":2125:2130   */\n  dup2\n    /* \"#utility.yul\":2118:2130   */\n  swap1\n  pop\n    /* \"#utility.yul\":2076:2136   */\n  swap2\n  swap1\n  pop\n  jump\t// out\n    /* \"#utility.yul\":2142:2284   */\ntag_27:\n    /* \"#utility.yul\":2192:2201   */\n  0x00\n    /* \"#utility.yul\":2225:2278   */\n  tag_59\n    /* \"#utility.yul\":2243:2277   */\n  tag_60\n    /* \"#utility.yul\":2252:2276   */\n  tag_61\n    /* \"#utility.yul\":2270:2275   */\n  dup5\n    /* \"#utility.yul\":2252:2276   */\n  tag_17\n  jump\t// in\ntag_61:\n    /* \"#utility.yul\":2243:2277   */\n  tag_26\n  jump\t// in\ntag_60:\n    /* \"#utility.yul\":2225:2278   */\n  tag_17\n  jump\t// in\ntag_59:\n    /* \"#utility.yul\":2212:2278   */\n  swap1\n  pop\n    /* \"#utility.yul\":2142:2284   */\n  swap2\n  swap1\n  pop\n  jump\t// out\n    /* \"#utility.yul\":2290:2365   */\ntag_28:\n    /* \"#utility.yul\":2333:2336   */\n  0x00\n    /* \"#utility.yul\":2354:2359   */\n  dup2\n    /* \"#utility.yul\":2347:2359   */\n  swap1\n  pop\n    /* \"#utility.yul\":2290:2365   */\n  swap2\n  swap1\n  pop\n  jump\t// out\n    /* \"#utility.yul\":2371:2640   */\ntag_29:\n    /* \"#utility.yul\":2481:2520   */\n  tag_64\n    /* \"#utility.yul\":2512:2519   */\n  dup4\n    /* \"#utility.yul\":2481:2520   */\n  tag_27\n  jump\t// in\ntag_64:\n    /* \"#utility.yul\":2542:2633   */\n  tag_65\n    /* \"#utility.yul\":2591:2632   */\n  tag_66\n    /* \"#utility.yul\":2615:2631   */\n  dup3\n    /* \"#utility.yul\":2591:2632   */\n  tag_28\n  jump\t// in\ntag_66:\n    /* \"#utility.yul\":2583:2589   */\n  dup5\n    /* \"#utility.yul\":2576:2580   */\n  dup5\n    /* \"#utility.yul\":2570:2581   */\n  sload\n    /* \"#utility.yul\":2542:2633   */\n  tag_25\n  jump\t// in\ntag_65:\n    /* \"#utility.yul\":2536:2540   */\n  dup3\n    /* \"#utility.yul\":2529:2634   */\n  sstore\n    /* \"#utility.yul\":2447:2640   */\n  pop\n    /* \"#utility.yul\":2371:2640   */\n  pop\n  pop\n  pop\n  jump\t// out\n    /* \"#utility.yul\":2646:2719   */\ntag_30:\n    /* \"#utility.yul\":2691:2694   */\n  0x00\n    /* \"#utility.yul\":2646:2719   */\n  swap1\n  jump\t// out\n    /* \"#utility.yul\":2725:2914   */\ntag_31:\n    /* \"#utility.yul\":2802:2834   */\n  tag_69\n  tag_30\n  jump\t// in\ntag_69:\n    /* \"#utility.yul\":2843:2908   */\n  tag_70\n    /* \"#utility.yul\":2901:2907   */\n  dup2\n    /* \"#utility.yul\":2893:2899   */\n  dup5\n    /* \"#utility.yul\":2887:2891   */\n  dup5\n    /* \"#utility.yul\":2843:2908   */\n  tag_29\n  jump\t// in\ntag_70:\n    /* \"#utility.yul\":2778:2914   */\n  pop\n    /* \"#utility.yul\":2725:2914   */\n  pop\n  pop\n  jump\t// out\n    /* \"#utility.yul\":2920:3106   */\ntag_32:\n    /* \"#utility.yul\":2980:3100   */\ntag_72:\n    /* \"#utility.yul\":2997:3000   */\n  dup2\n    /* \"#utility.yul\":2990:2995   */\n  dup2\n    /* \"#utility.yul\":2987:3001   */\n  lt\n    /* \"#utility.yul\":2980:3100   */\n  iszero\n  tag_74\n  jumpi\n    /* \"#utility.yul\":3051:3090   */\n  tag_75\n    /* \"#utility.yul\":3088:3089   */\n  0x00\n    /* \"#utility.yul\":3081:3086   */\n  dup3\n    /* \"#utility.yul\":3051:3090   */\n  tag_31\n  jump\t// in\ntag_75:\n    /* \"#utility.yul\":3024:3025   */\n  0x01\n    /* \"#utility.yul\":3017:3022   */\n  dup2\n    /* \"#utility.yul\":3013:3026   */\n  add\n    /* \"#utility.yul\":3004:3026   */\n  swap1\n  pop\n    /* \"#utility.yul\":2980:3100   */\n  jump(tag_72)\ntag_74:\n    /* \"#utility.yul\":2920:3106   */\n  pop\n  pop\n  jump\t// out\n    /* \"#utility.yul\":3112:3655   */\ntag_33:\n    /* \"#utility.yul\":3213:3215   */\n  0x1f\n    /* \"#utility.yul\":3208:3211   */\n  dup3\n    /* \"#utility.yul\":3205:3216   */\n  gt\n    /* \"#utility.yul\":3202:3648   */\n  iszero\n  tag_77\n  jumpi\n    /* \"#utility.yul\":3247:3285   */\n  tag_78\n    /* \"#utility.yul\":3279:3284   */\n  dup2\n    /* \"#utility.yul\":3247:3285   */\n  tag_22\n  jump\t// in\ntag_78:\n    /* \"#utility.yul\":3331:3360   */\n  tag_79\n    /* \"#utility.yul\":3349:3359   */\n  dup5\n    /* \"#utility.yul\":3331:3360   */\n  tag_23\n  jump\t// in\ntag_79:\n    /* \"#utility.yul\":3321:3329   */\n  dup2\n    /* \"#utility.yul\":3317:3361   */\n  add\n    /* \"#utility.yul\":3514:3516   */\n  0x20\n    /* \"#utility.yul\":3502:3512   */\n  dup6\n    /* \"#utility.yul\":3499:3517   */\n  lt\n    /* \"#utility.yul\":3496:3545   */\n  iszero\n  tag_80\n  jumpi\n    /* \"#utility.yul\":3535:3543   */\n  dup2\n    /* \"#utility.yul\":3520:3543   */\n  swap1\n  pop\n    /* \"#utility.yul\":3496:3545   */\ntag_80:\n    /* \"#utility.yul\":3558:3638   */\n  tag_81\n    /* \"#utility.yul\":3614:3636   */\n  tag_82\n    /* \"#utility.yul\":3632:3635   */\n  dup6\n    /* \"#utility.yul\":3614:3636   */\n  tag_23\n  jump\t// in\ntag_82:\n    /* \"#utility.yul\":3604:3612   */\n  dup4\n    /* \"#utility.yul\":3600:3637   */\n  add\n    /* \"#utility.yul\":3587:3598   */\n  dup3\n    /* \"#utility.yul\":3558:3638   */\n  tag_32\n  jump\t// in\ntag_81:\n    /* \"#utility.yul\":3217:3648   */\n  pop\n  pop\n    /* \"#utility.yul\":3202:3648   */\ntag_77:\n    /* \"#utility.yul\":3112:3655   */\n  pop\n  pop\n  pop\n  jump\t// out\n    /* \"#utility.yul\":3661:3778   */\ntag_34:\n    /* \"#utility.yul\":3715:3723   */\n  0x00\n    /* \"#utility.yul\":3765:3770   */\n  dup3\n    /* \"#utility.yul\":3759:3763   */\n  dup3\n    /* \"#utility.yul\":3755:3771   */\n  shr\n    /* \"#utility.yul\":3734:3771   */\n  swap1\n  pop\n    /* \"#utility.yul\":3661:3778   */\n  swap3\n  swap2\n  pop\n  pop\n  jump\t// out\n    /* \"#utility.yul\":3784:3953   */\ntag_35:\n    /* \"#utility.yul\":3828:3834   */\n  0x00\n    /* \"#utility.yul\":3861:3912   */\n  tag_85\n    /* \"#utility.yul\":3909:3910   */\n  0x00\n    /* \"#utility.yul\":3905:3911   */\n  not\n    /* \"#utility.yul\":3897:3902   */\n  dup5\n    /* \"#utility.yul\":3894:3895   */\n  0x08\n    /* \"#utility.yul\":3890:3903   */\n  mul\n    /* \"#utility.yul\":3861:3912   */\n  tag_34\n  jump\t// in\ntag_85:\n    /* \"#utility.yul\":3857:3913   */\n  not\n    /* \"#utility.yul\":3942:3946   */\n  dup1\n    /* \"#utility.yul\":3936:3940   */\n  dup4\n    /* \"#utility.yul\":3932:3947   */\n  and\n    /* \"#utility.yul\":3922:3947   */\n  swap2\n  pop\n    /* \"#utility.yul\":3835:3953   */\n  pop\n    /* \"#utility.yul\":3784:3953   */\n  swap3\n  swap2\n  pop\n  pop\n  jump\t// out\n    /* \"#utility.yul\":3958:4253   */\ntag_36:\n    /* \"#utility.yul\":4034:4038   */\n  0x00\n    /* \"#utility.yul\":4180:4209   */\n  tag_87\n    /* \"#utility.yul\":4205:4208   */\n  dup4\n    /* \"#utility.yul\":4199:4203   */\n  dup4\n    /* \"#utility.yul\":4180:4209   */\n  tag_35\n  jump\t// in\ntag_87:\n    /* \"#utility.yul\":4172:4209   */\n  swap2\n  pop\n    /* \"#utility.yul\":4242:4245   */\n  dup3\n    /* \"#utility.yul\":4239:4240   */\n  0x02\n    /* \"#utility.yul\":4235:4246   */\n  mul\n    /* \"#utility.yul\":4229:4233   */\n  dup3\n    /* \"#utility.yul\":4226:4247   */\n  or\n    /* \"#utility.yul\":4218:4247   */\n  swap1\n  pop\n    /* \"#utility.yul\":3958:4253   */\n  swap3\n  swap2\n  pop\n  pop\n  jump\t// out\n    /* \"#utility.yul\":4258:5653   */\ntag_15:\n    /* \"#utility.yul\":4375:4412   */\n  tag_89\n    /* \"#utility.yul\":4408:4411   */\n  dup3\n    /* \"#utility.yul\":4375:4412   */\n  tag_18\n  jump\t// in\ntag_89:\n    /* \"#utility.yul\":4477:4495   */\n  0xffffffffffffffff\n    /* \"#utility.yul\":4469:4475   */\n  dup2\n    /* \"#utility.yul\":4466:4496   */\n  gt\n    /* \"#utility.yul\":4463:4519   */\n  iszero\n  tag_90\n  jumpi\n    /* \"#utility.yul\":4499:4517   */\n  tag_91\n  tag_19\n  jump\t// in\ntag_91:\n    /* \"#utility.yul\":4463:4519   */\ntag_90:\n    /* \"#utility.yul\":4543:4581   */\n  tag_92\n    /* \"#utility.yul\":4575:4579   */\n  dup3\n    /* \"#utility.yul\":4569:4580   */\n  sload\n    /* \"#utility.yul\":4543:4581   */\n  tag_21\n  jump\t// in\ntag_92:\n    /* \"#utility.yul\":4628:4695   */\n  tag_93\n    /* \"#utility.yul\":4688:4694   */\n  dup3\n    /* \"#utility.yul\":4680:4686   */\n  dup3\n    /* \"#utility.yul\":4674:4678   */\n  dup6\n    /* \"#utility.yul\":4628:4695   */\n  tag_33\n  jump\t// in\ntag_93:\n    /* \"#utility.yul\":4722:4723   */\n  0x00\n    /* \"#utility.yul\":4746:4750   */\n  0x20\n    /* \"#utility.yul\":4733:4750   */\n  swap1\n  pop\n    /* \"#utility.yul\":4778:4780   */\n  0x1f\n    /* \"#utility.yul\":4770:4776   */\n  dup4\n    /* \"#utility.yul\":4767:4781   */\n  gt\n    /* \"#utility.yul\":4795:4796   */\n  0x01\n    /* \"#utility.yul\":4790:5408   */\n  dup2\n  eq\n  tag_95\n  jumpi\n    /* \"#utility.yul\":5452:5453   */\n  0x00\n    /* \"#utility.yul\":5469:5475   */\n  dup5\n    /* \"#utility.yul\":5466:5543   */\n  iszero\n  tag_96\n  jumpi\n    /* \"#utility.yul\":5518:5527   */\n  dup3\n    /* \"#utility.yul\":5513:5516   */\n  dup8\n    /* \"#utility.yul\":5509:5528   */\n  add\n    /* \"#utility.yul\":5503:5529   */\n  mload\n    /* \"#utility.yul\":5494:5529   */\n  swap1\n  pop\n    /* \"#utility.yul\":5466:5543   */\ntag_96:\n    /* \"#utility.yul\":5569:5636   */\n  tag_97\n    /* \"#utility.yul\":5629:5635   */\n  dup6\n    /* \"#utility.yul\":5622:5627   */\n  dup3\n    /* \"#utility.yul\":5569:5636   */\n  tag_36\n  jump\t// in\ntag_97:\n    /* \"#utility.yul\":5563:5567   */\n  dup7\n    /* \"#utility.yul\":5556:5637   */\n  sstore\n    /* \"#utility.yul\":5425:5647   */\n  pop\n    /* \"#utility.yul\":4760:5647   */\n  jump(tag_94)\n    /* \"#utility.yul\":4790:5408   */\ntag_95:\n    /* \"#utility.yul\":4842:4846   */\n  0x1f\n    /* \"#utility.yul\":4838:4847   */\n  not\n    /* \"#utility.yul\":4830:4836   */\n  dup5\n    /* \"#utility.yul\":4826:4848   */\n  and\n    /* \"#utility.yul\":4876:4913   */\n  tag_98\n    /* \"#utility.yul\":4908:4912   */\n  dup7\n    /* \"#utility.yul\":4876:4913   */\n  tag_22\n  jump\t// in\ntag_98:\n    /* \"#utility.yul\":4935:4936   */\n  0x00\n    /* \"#utility.yul\":4949:5157   */\ntag_99:\n    /* \"#utility.yul\":4963:4970   */\n  dup3\n    /* \"#utility.yul\":4960:4961   */\n  dup2\n    /* \"#utility.yul\":4957:4971   */\n  lt\n    /* \"#utility.yul\":4949:5157   */\n  iszero\n  tag_101\n  jumpi\n    /* \"#utility.yul\":5042:5051   */\n  dup5\n    /* \"#utility.yul\":5037:5040   */\n  dup10\n    /* \"#utility.yul\":5033:5052   */\n  add\n    /* \"#utility.yul\":5027:5053   */\n  mload\n    /* \"#utility.yul\":5019:5025   */\n  dup3\n    /* \"#utility.yul\":5012:5054   */\n  sstore\n    /* \"#utility.yul\":5093:5094   */\n  0x01\n    /* \"#utility.yul\":5085:5091   */\n  dup3\n    /* \"#utility.yul\":5081:5095   */\n  add\n    /* \"#utility.yul\":5071:5095   */\n  swap2\n  pop\n    /* \"#utility.yul\":5140:5142   */\n  0x20\n    /* \"#utility.yul\":5129:5138   */\n  dup6\n    /* \"#utility.yul\":5125:5143   */\n  add\n    /* \"#utility.yul\":5112:5143   */\n  swap5\n  pop\n    /* \"#utility.yul\":4986:4990   */\n  0x20\n    /* \"#utility.yul\":4983:4984   */\n  dup2\n    /* \"#utility.yul\":4979:4991   */\n  add\n    /* \"#utility.yul\":4974:4991   */\n  swap1\n  pop\n    /* \"#utility.yul\":4949:5157   */\n  jump(tag_99)\ntag_101:\n    /* \"#utility.yul\":5185:5191   */\n  dup7\n    /* \"#utility.yul\":5176:5183   */\n  dup4\n    /* \"#utility.yul\":5173:5192   */\n  lt\n    /* \"#utility.yul\":5170:5349   */\n  iszero\n  tag_102\n  jumpi\n    /* \"#utility.yul\":5243:5252   */\n  dup5\n    /* \"#utility.yul\":5238:5241   */\n  dup10\n    /* \"#utility.yul\":5234:5253   */\n  add\n    /* \"#utility.yul\":5228:5254   */\n  mload\n    /* \"#utility.yul\":5286:5334   */\n  tag_103\n    /* \"#utility.yul\":5328:5332   */\n  0x1f\n    /* \"#utility.yul\":5320:5326   */\n  dup10\n    /* \"#utility.yul\":5316:5333   */\n  and\n    /* \"#utility.yul\":5305:5314   */\n  dup3\n    /* \"#utility.yul\":5286:5334   */\n  tag_35\n  jump\t// in\ntag_103:\n    /* \"#utility.yul\":5278:5284   */\n  dup4\n    /* \"#utility.yul\":5271:5335   */\n  sstore\n    /* \"#utility.yul\":5193:5349   */\n  pop\n    /* \"#utility.yul\":5170:5349   */\ntag_102:\n    /* \"#utility.yul\":5395:5396   */\n  0x01\n    /* \"#utility.yul\":5391:5392   */\n  0x02\n    /* \"#utility.yul\":5383:5389   */\n  dup9\n    /* \"#utility.yul\":5379:5393   */\n  mul\n    /* \"#utility.yul\":5375:5397   */\n  add\n    /* \"#utility.yul\":5369:5373   */\n  dup9\n    /* \"#utility.yul\":5362:5398   */\n  sstore\n    /* \"#utility.yul\":4797:5408   */\n  pop\n  pop\n  pop\n    /* \"#utility.yul\":4760:5647   */\ntag_94:\n  pop\n    /* \"#utility.yul\":4350:5653   */\n  pop\n  pop\n  pop\n    /* \"#utility.yul\":4258:5653   */\n  pop\n  pop\n  jump\t// out\n    /* \"voting.sol\":28:905  contract Voting{... */\ntag_10:\n  dataSize(sub_0)\n  dup1\n  dataOffset(sub_0)\n  0x00\n  codecopy\n  0x00\n  return\nstop\n\nsub_0: assembly {\n        /* \"voting.sol\":28:905  contract Voting{... */\n      mstore(0x40, 0x80)\n      callvalue\n      dup1\n      iszero\n      tag_1\n      jumpi\n      0x00\n      dup1\n      revert\n    tag_1:\n      pop\n      jumpi(tag_2, lt(calldatasize, 0x04))\n      shr(0xe0, calldataload(0x00))\n      dup1\n      0x0121b93f\n      eq\n      tag_3\n      jumpi\n      dup1\n      0x3477ee2e\n      eq\n      tag_4\n      jumpi\n      dup1\n      0xa3ec138d\n      eq\n      tag_5\n      jumpi\n      dup1\n      0xc8b94d69\n      eq\n      tag_6\n      jumpi\n    tag_2:\n      0x00\n      dup1\n      revert\n        /* \"voting.sol\":655:902  function vote (uint _candidateId) public {... */\n    tag_3:\n      tag_7\n      0x04\n      dup1\n      calldatasize\n      sub\n      dup2\n      add\n      swap1\n      tag_8\n      swap2\n      swap1\n      tag_9\n      jump\t// in\n    tag_8:\n      tag_10\n      jump\t// in\n    tag_7:\n      stop\n        /* \"voting.sol\":191:235  mapping(uint => Candidate) public candidates */\n    tag_4:\n      tag_11\n      0x04\n      dup1\n      calldatasize\n      sub\n      dup2\n      add\n      swap1\n      tag_12\n      swap2\n      swap1\n      tag_9\n      jump\t// in\n    tag_12:\n      tag_13\n      jump\t// in\n    tag_11:\n      mload(0x40)\n      tag_14\n      swap4\n      swap3\n      swap2\n      swap1\n      tag_15\n      jump\t// in\n    tag_14:\n      mload(0x40)\n      dup1\n      swap2\n      sub\n      swap1\n      return\n        /* \"voting.sol\":146:184  mapping(address => bool) public voters */\n    tag_5:\n      tag_16\n      0x04\n      dup1\n      calldatasize\n      sub\n      dup2\n      add\n      swap1\n      tag_17\n      swap2\n      swap1\n      tag_18\n      jump\t// in\n    tag_17:\n      tag_19\n      jump\t// in\n    tag_16:\n      mload(0x40)\n      tag_20\n      swap2\n      swap1\n      tag_21\n      jump\t// in\n    tag_20:\n      mload(0x40)\n      dup1\n      swap2\n      sub\n      swap1\n      return\n        /* \"voting.sol\":242:268  uint public candidatecount */\n    tag_6:\n      tag_22\n      tag_23\n      jump\t// in\n    tag_22:\n      mload(0x40)\n      tag_24\n      swap2\n      swap1\n      tag_25\n      jump\t// in\n    tag_24:\n      mload(0x40)\n      dup1\n      swap2\n      sub\n      swap1\n      return\n        /* \"voting.sol\":655:902  function vote (uint _candidateId) public {... */\n    tag_10:\n        /* \"voting.sol\":717:723  voters */\n      0x00\n        /* \"voting.sol\":717:735  voters[msg.sender] */\n      dup1\n        /* \"voting.sol\":724:734  msg.sender */\n      caller\n        /* \"voting.sol\":717:735  voters[msg.sender] */\n      0xffffffffffffffffffffffffffffffffffffffff\n      and\n      0xffffffffffffffffffffffffffffffffffffffff\n      and\n      dup2\n      mstore\n      0x20\n      add\n      swap1\n      dup2\n      mstore\n      0x20\n      add\n      0x00\n      keccak256\n      0x00\n      swap1\n      sload\n      swap1\n      0x0100\n      exp\n      swap1\n      div\n      0xff\n      and\n        /* \"voting.sol\":716:735  !voters[msg.sender] */\n      iszero\n        /* \"voting.sol\":708:736  require(!voters[msg.sender]) */\n      tag_27\n      jumpi\n      0x00\n      dup1\n      revert\n    tag_27:\n        /* \"voting.sol\":771:772  0 */\n      0x00\n        /* \"voting.sol\":756:768  _candidateId */\n      dup2\n        /* \"voting.sol\":756:772  _candidateId > 0 */\n      gt\n        /* \"voting.sol\":756:806  _candidateId > 0 && _candidateId <= candidatecount */\n      dup1\n      iszero\n      tag_28\n      jumpi\n      pop\n        /* \"voting.sol\":792:806  candidatecount */\n      sload(0x02)\n        /* \"voting.sol\":776:788  _candidateId */\n      dup2\n        /* \"voting.sol\":776:806  _candidateId <= candidatecount */\n      gt\n      iszero\n        /* \"voting.sol\":756:806  _candidateId > 0 && _candidateId <= candidatecount */\n    tag_28:\n        /* \"voting.sol\":748:807  require(_candidateId > 0 && _candidateId <= candidatecount) */\n      tag_29\n      jumpi\n      0x00\n      dup1\n      revert\n    tag_29:\n        /* \"voting.sol\":840:844  true */\n      0x01\n        /* \"voting.sol\":819:825  voters */\n      0x00\n        /* \"voting.sol\":819:837  voters[msg.sender] */\n      dup1\n        /* \"voting.sol\":826:836  msg.sender */\n      caller\n        /* \"voting.sol\":819:837  voters[msg.sender] */\n      0xffffffffffffffffffffffffffffffffffffffff\n      and\n      0xffffffffffffffffffffffffffffffffffffffff\n      and\n      dup2\n      mstore\n      0x20\n      add\n      swap1\n      dup2\n      mstore\n      0x20\n      add\n      0x00\n      keccak256\n      0x00\n        /* \"voting.sol\":819:844  voters[msg.sender] = true */\n      0x0100\n      exp\n      dup2\n      sload\n      dup2\n      0xff\n      mul\n      not\n      and\n      swap1\n      dup4\n      iszero\n      iszero\n      mul\n      or\n      swap1\n      sstore\n      pop\n        /* \"voting.sol\":856:866  candidates */\n      0x01\n        /* \"voting.sol\":856:880  candidates[_candidateId] */\n      0x00\n        /* \"voting.sol\":867:879  _candidateId */\n      dup3\n        /* \"voting.sol\":856:880  candidates[_candidateId] */\n      dup2\n      mstore\n      0x20\n      add\n      swap1\n      dup2\n      mstore\n      0x20\n      add\n      0x00\n      keccak256\n        /* \"voting.sol\":856:890  candidates[_candidateId].votecount */\n      0x02\n      add\n      0x00\n        /* \"voting.sol\":856:893  candidates[_candidateId].votecount ++ */\n      dup2\n      sload\n      dup1\n      swap3\n      swap2\n      swap1\n      tag_30\n      swap1\n      tag_31\n      jump\t// in\n    tag_30:\n      swap2\n      swap1\n      pop\n      sstore\n      pop\n        /* \"voting.sol\":655:902  function vote (uint _candidateId) public {... */\n      pop\n      jump\t// out\n        /* \"voting.sol\":191:235  mapping(uint => Candidate) public candidates */\n    tag_13:\n      mstore(0x20, 0x01)\n      dup1\n      0x00\n      mstore\n      keccak256(0x00, 0x40)\n      0x00\n      swap2\n      pop\n      swap1\n      pop\n      dup1\n      0x00\n      add\n      sload\n      swap1\n      dup1\n      0x01\n      add\n      dup1\n      sload\n      tag_32\n      swap1\n      tag_33\n      jump\t// in\n    tag_32:\n      dup1\n      0x1f\n      add\n      0x20\n      dup1\n      swap2\n      div\n      mul\n      0x20\n      add\n      mload(0x40)\n      swap1\n      dup2\n      add\n      0x40\n      mstore\n      dup1\n      swap3\n      swap2\n      swap1\n      dup2\n      dup2\n      mstore\n      0x20\n      add\n      dup3\n      dup1\n      sload\n      tag_34\n      swap1\n      tag_33\n      jump\t// in\n    tag_34:\n      dup1\n      iszero\n      tag_35\n      jumpi\n      dup1\n      0x1f\n      lt\n      tag_36\n      jumpi\n      0x0100\n      dup1\n      dup4\n      sload\n      div\n      mul\n      dup4\n      mstore\n      swap2\n      0x20\n      add\n      swap2\n      jump(tag_35)\n    tag_36:\n      dup3\n      add\n      swap2\n      swap1\n      0x00\n      mstore\n      keccak256(0x00, 0x20)\n      swap1\n    tag_37:\n      dup2\n      sload\n      dup2\n      mstore\n      swap1\n      0x01\n      add\n      swap1\n      0x20\n      add\n      dup1\n      dup4\n      gt\n      tag_37\n      jumpi\n      dup3\n      swap1\n      sub\n      0x1f\n      and\n      dup3\n      add\n      swap2\n    tag_35:\n      pop\n      pop\n      pop\n      pop\n      pop\n      swap1\n      dup1\n      0x02\n      add\n      sload\n      swap1\n      pop\n      dup4\n      jump\t// out\n        /* \"voting.sol\":146:184  mapping(address => bool) public voters */\n    tag_19:\n      mstore(0x20, 0x00)\n      dup1\n      0x00\n      mstore\n      keccak256(0x00, 0x40)\n      0x00\n      swap2\n      pop\n      sload\n      swap1\n      0x0100\n      exp\n      swap1\n      div\n      0xff\n      and\n      dup2\n      jump\t// out\n        /* \"voting.sol\":242:268  uint public candidatecount */\n    tag_23:\n      sload(0x02)\n      dup2\n      jump\t// out\n        /* \"#utility.yul\":88:205   */\n    tag_39:\n        /* \"#utility.yul\":197:198   */\n      0x00\n        /* \"#utility.yul\":194:195   */\n      dup1\n        /* \"#utility.yul\":187:199   */\n      revert\n        /* \"#utility.yul\":334:411   */\n    tag_41:\n        /* \"#utility.yul\":371:378   */\n      0x00\n        /* \"#utility.yul\":400:405   */\n      dup2\n        /* \"#utility.yul\":389:405   */\n      swap1\n      pop\n        /* \"#utility.yul\":334:411   */\n      swap2\n      swap1\n      pop\n      jump\t// out\n        /* \"#utility.yul\":417:539   */\n    tag_42:\n        /* \"#utility.yul\":490:514   */\n      tag_64\n        /* \"#utility.yul\":508:513   */\n      dup2\n        /* \"#utility.yul\":490:514   */\n      tag_41\n      jump\t// in\n    tag_64:\n        /* \"#utility.yul\":483:488   */\n      dup2\n        /* \"#utility.yul\":480:515   */\n      eq\n        /* \"#utility.yul\":470:533   */\n      tag_65\n      jumpi\n        /* \"#utility.yul\":529:530   */\n      0x00\n        /* \"#utility.yul\":526:527   */\n      dup1\n        /* \"#utility.yul\":519:531   */\n      revert\n        /* \"#utility.yul\":470:533   */\n    tag_65:\n        /* \"#utility.yul\":417:539   */\n      pop\n      jump\t// out\n        /* \"#utility.yul\":545:684   */\n    tag_43:\n        /* \"#utility.yul\":591:596   */\n      0x00\n        /* \"#utility.yul\":629:635   */\n      dup2\n        /* \"#utility.yul\":616:636   */\n      calldataload\n        /* \"#utility.yul\":607:636   */\n      swap1\n      pop\n        /* \"#utility.yul\":645:678   */\n      tag_67\n        /* \"#utility.yul\":672:677   */\n      dup2\n        /* \"#utility.yul\":645:678   */\n      tag_42\n      jump\t// in\n    tag_67:\n        /* \"#utility.yul\":545:684   */\n      swap3\n      swap2\n      pop\n      pop\n      jump\t// out\n        /* \"#utility.yul\":690:1019   */\n    tag_9:\n        /* \"#utility.yul\":749:755   */\n      0x00\n        /* \"#utility.yul\":798:800   */\n      0x20\n        /* \"#utility.yul\":786:795   */\n      dup3\n        /* \"#utility.yul\":777:784   */\n      dup5\n        /* \"#utility.yul\":773:796   */\n      sub\n        /* \"#utility.yul\":769:801   */\n      slt\n        /* \"#utility.yul\":766:885   */\n      iszero\n      tag_69\n      jumpi\n        /* \"#utility.yul\":804:883   */\n      tag_70\n      tag_39\n      jump\t// in\n    tag_70:\n        /* \"#utility.yul\":766:885   */\n    tag_69:\n        /* \"#utility.yul\":924:925   */\n      0x00\n        /* \"#utility.yul\":949:1002   */\n      tag_71\n        /* \"#utility.yul\":994:1001   */\n      dup5\n        /* \"#utility.yul\":985:991   */\n      dup3\n        /* \"#utility.yul\":974:983   */\n      dup6\n        /* \"#utility.yul\":970:992   */\n      add\n        /* \"#utility.yul\":949:1002   */\n      tag_43\n      jump\t// in\n    tag_71:\n        /* \"#utility.yul\":939:1002   */\n      swap2\n      pop\n        /* \"#utility.yul\":895:1012   */\n      pop\n        /* \"#utility.yul\":690:1019   */\n      swap3\n      swap2\n      pop\n      pop\n      jump\t// out\n        /* \"#utility.yul\":1025:1143   */\n    tag_44:\n        /* \"#utility.yul\":1112:1136   */\n      tag_73\n        /* \"#utility.yul\":1130:1135   */\n      dup2\n        /* \"#utility.yul\":1112:1136   */\n      tag_41\n      jump\t// in\n    tag_73:\n        /* \"#utility.yul\":1107:1110   */\n      dup3\n        /* \"#utility.yul\":1100:1137   */\n      mstore\n        /* \"#utility.yul\":1025:1143   */\n      pop\n      pop\n      jump\t// out\n        /* \"#utility.yul\":1149:1248   */\n    tag_45:\n        /* \"#utility.yul\":1201:1207   */\n      0x00\n        /* \"#utility.yul\":1235:1240   */\n      dup2\n        /* \"#utility.yul\":1229:1241   */\n      mload\n        /* \"#utility.yul\":1219:1241   */\n      swap1\n      pop\n        /* \"#utility.yul\":1149:1248   */\n      swap2\n      swap1\n      pop\n      jump\t// out\n        /* \"#utility.yul\":1254:1423   */\n    tag_46:\n        /* \"#utility.yul\":1338:1349   */\n      0x00\n        /* \"#utility.yul\":1372:1378   */\n      dup3\n        /* \"#utility.yul\":1367:1370   */\n      dup3\n        /* \"#utility.yul\":1360:1379   */\n      mstore\n        /* \"#utility.yul\":1412:1416   */\n      0x20\n        /* \"#utility.yul\":1407:1410   */\n      dup3\n        /* \"#utility.yul\":1403:1417   */\n      add\n        /* \"#utility.yul\":1388:1417   */\n      swap1\n      pop\n        /* \"#utility.yul\":1254:1423   */\n      swap3\n      swap2\n      pop\n      pop\n      jump\t// out\n        /* \"#utility.yul\":1429:1736   */\n    tag_47:\n        /* \"#utility.yul\":1497:1498   */\n      0x00\n        /* \"#utility.yul\":1507:1620   */\n    tag_77:\n        /* \"#utility.yul\":1521:1527   */\n      dup4\n        /* \"#utility.yul\":1518:1519   */\n      dup2\n        /* \"#utility.yul\":1515:1528   */\n      lt\n        /* \"#utility.yul\":1507:1620   */\n      iszero\n      tag_79\n      jumpi\n        /* \"#utility.yul\":1606:1607   */\n      dup1\n        /* \"#utility.yul\":1601:1604   */\n      dup3\n        /* \"#utility.yul\":1597:1608   */\n      add\n        /* \"#utility.yul\":1591:1609   */\n      mload\n        /* \"#utility.yul\":1587:1588   */\n      dup2\n        /* \"#utility.yul\":1582:1585   */\n      dup5\n        /* \"#utility.yul\":1578:1589   */\n      add\n        /* \"#utility.yul\":1571:1610   */\n      mstore\n        /* \"#utility.yul\":1543:1545   */\n      0x20\n        /* \"#utility.yul\":1540:1541   */\n      dup2\n        /* \"#utility.yul\":1536:1546   */\n      add\n        /* \"#utility.yul\":1531:1546   */\n      swap1\n      pop\n        /* \"#utility.yul\":1507:1620   */\n      jump(tag_77)\n    tag_79:\n        /* \"#utility.yul\":1638:1644   */\n      dup4\n        /* \"#utility.yul\":1635:1636   */\n      dup2\n        /* \"#utility.yul\":1632:1645   */\n      gt\n        /* \"#utility.yul\":1629:1730   */\n      iszero\n      tag_80\n      jumpi\n        /* \"#utility.yul\":1718:1719   */\n      0x00\n        /* \"#utility.yul\":1709:1715   */\n      dup5\n        /* \"#utility.yul\":1704:1707   */\n      dup5\n        /* \"#utility.yul\":1700:1716   */\n      add\n        /* \"#utility.yul\":1693:1720   */\n      mstore\n        /* \"#utility.yul\":1629:1730   */\n    tag_80:\n        /* \"#utility.yul\":1478:1736   */\n      pop\n        /* \"#utility.yul\":1429:1736   */\n      pop\n      pop\n      pop\n      jump\t// out\n        /* \"#utility.yul\":1742:1844   */\n    tag_48:\n        /* \"#utility.yul\":1783:1789   */\n      0x00\n        /* \"#utility.yul\":1834:1836   */\n      0x1f\n        /* \"#utility.yul\":1830:1837   */\n      not\n        /* \"#utility.yul\":1825:1827   */\n      0x1f\n        /* \"#utility.yul\":1818:1823   */\n      dup4\n        /* \"#utility.yul\":1814:1828   */\n      add\n        /* \"#utility.yul\":1810:1838   */\n      and\n        /* \"#utility.yul\":1800:1838   */\n      swap1\n      pop\n        /* \"#utility.yul\":1742:1844   */\n      swap2\n      swap1\n      pop\n      jump\t// out\n        /* \"#utility.yul\":1850:2214   */\n    tag_49:\n        /* \"#utility.yul\":1938:1941   */\n      0x00\n        /* \"#utility.yul\":1966:2005   */\n      tag_83\n        /* \"#utility.yul\":1999:2004   */\n      dup3\n        /* \"#utility.yul\":1966:2005   */\n      tag_45\n      jump\t// in\n    tag_83:\n        /* \"#utility.yul\":2021:2092   */\n      tag_84\n        /* \"#utility.yul\":2085:2091   */\n      dup2\n        /* \"#utility.yul\":2080:2083   */\n      dup6\n        /* \"#utility.yul\":2021:2092   */\n      tag_46\n      jump\t// in\n    tag_84:\n        /* \"#utility.yul\":2014:2092   */\n      swap4\n      pop\n        /* \"#utility.yul\":2101:2153   */\n      tag_85\n        /* \"#utility.yul\":2146:2152   */\n      dup2\n        /* \"#utility.yul\":2141:2144   */\n      dup6\n        /* \"#utility.yul\":2134:2138   */\n      0x20\n        /* \"#utility.yul\":2127:2132   */\n      dup7\n        /* \"#utility.yul\":2123:2139   */\n      add\n        /* \"#utility.yul\":2101:2153   */\n      tag_47\n      jump\t// in\n    tag_85:\n        /* \"#utility.yul\":2178:2207   */\n      tag_86\n        /* \"#utility.yul\":2200:2206   */\n      dup2\n        /* \"#utility.yul\":2178:2207   */\n      tag_48\n      jump\t// in\n    tag_86:\n        /* \"#utility.yul\":2173:2176   */\n      dup5\n        /* \"#utility.yul\":2169:2208   */\n      add\n        /* \"#utility.yul\":2162:2208   */\n      swap2\n      pop\n        /* \"#utility.yul\":1942:2214   */\n      pop\n        /* \"#utility.yul\":1850:2214   */\n      swap3\n      swap2\n      pop\n      pop\n      jump\t// out\n        /* \"#utility.yul\":2220:2753   */\n    tag_15:\n        /* \"#utility.yul\":2389:2393   */\n      0x00\n        /* \"#utility.yul\":2427:2429   */\n      0x60\n        /* \"#utility.yul\":2416:2425   */\n      dup3\n        /* \"#utility.yul\":2412:2430   */\n      add\n        /* \"#utility.yul\":2404:2430   */\n      swap1\n      pop\n        /* \"#utility.yul\":2440:2511   */\n      tag_88\n        /* \"#utility.yul\":2508:2509   */\n      0x00\n        /* \"#utility.yul\":2497:2506   */\n      dup4\n        /* \"#utility.yul\":2493:2510   */\n      add\n        /* \"#utility.yul\":2484:2490   */\n      dup7\n        /* \"#utility.yul\":2440:2511   */\n      tag_44\n      jump\t// in\n    tag_88:\n        /* \"#utility.yul\":2558:2567   */\n      dup2\n        /* \"#utility.yul\":2552:2556   */\n      dup2\n        /* \"#utility.yul\":2548:2568   */\n      sub\n        /* \"#utility.yul\":2543:2545   */\n      0x20\n        /* \"#utility.yul\":2532:2541   */\n      dup4\n        /* \"#utility.yul\":2528:2546   */\n      add\n        /* \"#utility.yul\":2521:2569   */\n      mstore\n        /* \"#utility.yul\":2586:2664   */\n      tag_89\n        /* \"#utility.yul\":2659:2663   */\n      dup2\n        /* \"#utility.yul\":2650:2656   */\n      dup6\n        /* \"#utility.yul\":2586:2664   */\n      tag_49\n      jump\t// in\n    tag_89:\n        /* \"#utility.yul\":2578:2664   */\n      swap1\n      pop\n        /* \"#utility.yul\":2674:2746   */\n      tag_90\n        /* \"#utility.yul\":2742:2744   */\n      0x40\n        /* \"#utility.yul\":2731:2740   */\n      dup4\n        /* \"#utility.yul\":2727:2745   */\n      add\n        /* \"#utility.yul\":2718:2724   */\n      dup5\n        /* \"#utility.yul\":2674:2746   */\n      tag_44\n      jump\t// in\n    tag_90:\n        /* \"#utility.yul\":2220:2753   */\n      swap5\n      swap4\n      pop\n      pop\n      pop\n      pop\n      jump\t// out\n        /* \"#utility.yul\":2759:2885   */\n    tag_50:\n        /* \"#utility.yul\":2796:2803   */\n      0x00\n        /* \"#utility.yul\":2836:2878   */\n      0xffffffffffffffffffffffffffffffffffffffff\n        /* \"#utility.yul\":2829:2834   */\n      dup3\n        /* \"#utility.yul\":2825:2879   */\n      and\n        /* \"#utility.yul\":2814:2879   */\n      swap1\n      pop\n        /* \"#utility.yul\":2759:2885   */\n      swap2\n      swap1\n      pop\n      jump\t// out\n        /* \"#utility.yul\":2891:2987   */\n    tag_51:\n        /* \"#utility.yul\":2928:2935   */\n      0x00\n        /* \"#utility.yul\":2957:2981   */\n      tag_93\n        /* \"#utility.yul\":2975:2980   */\n      dup3\n        /* \"#utility.yul\":2957:2981   */\n      tag_50\n      jump\t// in\n    tag_93:\n        /* \"#utility.yul\":2946:2981   */\n      swap1\n      pop\n        /* \"#utility.yul\":2891:2987   */\n      swap2\n      swap1\n      pop\n      jump\t// out\n        /* \"#utility.yul\":2993:3115   */\n    tag_52:\n        /* \"#utility.yul\":3066:3090   */\n      tag_95\n        /* \"#utility.yul\":3084:3089   */\n      dup2\n        /* \"#utility.yul\":3066:3090   */\n      tag_51\n      jump\t// in\n    tag_95:\n        /* \"#utility.yul\":3059:3064   */\n      dup2\n        /* \"#utility.yul\":3056:3091   */\n      eq\n        /* \"#utility.yul\":3046:3109   */\n      tag_96\n      jumpi\n        /* \"#utility.yul\":3105:3106   */\n      0x00\n        /* \"#utility.yul\":3102:3103   */\n      dup1\n        /* \"#utility.yul\":3095:3107   */\n      revert\n        /* \"#utility.yul\":3046:3109   */\n    tag_96:\n        /* \"#utility.yul\":2993:3115   */\n      pop\n      jump\t// out\n        /* \"#utility.yul\":3121:3260   */\n    tag_53:\n        /* \"#utility.yul\":3167:3172   */\n      0x00\n        /* \"#utility.yul\":3205:3211   */\n      dup2\n        /* \"#utility.yul\":3192:3212   */\n      calldataload\n        /* \"#utility.yul\":3183:3212   */\n      swap1\n      pop\n        /* \"#utility.yul\":3221:3254   */\n      tag_98\n        /* \"#utility.yul\":3248:3253   */\n      dup2\n        /* \"#utility.yul\":3221:3254   */\n      tag_52\n      jump\t// in\n    tag_98:\n        /* \"#utility.yul\":3121:3260   */\n      swap3\n      swap2\n      pop\n      pop\n      jump\t// out\n        /* \"#utility.yul\":3266:3595   */\n    tag_18:\n        /* \"#utility.yul\":3325:3331   */\n      0x00\n        /* \"#utility.yul\":3374:3376   */\n      0x20\n        /* \"#utility.yul\":3362:3371   */\n      dup3\n        /* \"#utility.yul\":3353:3360   */\n      dup5\n        /* \"#utility.yul\":3349:3372   */\n      sub\n        /* \"#utility.yul\":3345:3377   */\n      slt\n        /* \"#utility.yul\":3342:3461   */\n      iszero\n      tag_100\n      jumpi\n        /* \"#utility.yul\":3380:3459   */\n      tag_101\n      tag_39\n      jump\t// in\n    tag_101:\n        /* \"#utility.yul\":3342:3461   */\n    tag_100:\n        /* \"#utility.yul\":3500:3501   */\n      0x00\n        /* \"#utility.yul\":3525:3578   */\n      tag_102\n        /* \"#utility.yul\":3570:3577   */\n      dup5\n        /* \"#utility.yul\":3561:3567   */\n      dup3\n        /* \"#utility.yul\":3550:3559   */\n      dup6\n        /* \"#utility.yul\":3546:3568   */\n      add\n        /* \"#utility.yul\":3525:3578   */\n      tag_53\n      jump\t// in\n    tag_102:\n        /* \"#utility.yul\":3515:3578   */\n      swap2\n      pop\n        /* \"#utility.yul\":3471:3588   */\n      pop\n        /* \"#utility.yul\":3266:3595   */\n      swap3\n      swap2\n      pop\n      pop\n      jump\t// out\n        /* \"#utility.yul\":3601:3691   */\n    tag_54:\n        /* \"#utility.yul\":3635:3642   */\n      0x00\n        /* \"#utility.yul\":3678:3683   */\n      dup2\n        /* \"#utility.yul\":3671:3684   */\n      iszero\n        /* \"#utility.yul\":3664:3685   */\n      iszero\n        /* \"#utility.yul\":3653:3685   */\n      swap1\n      pop\n        /* \"#utility.yul\":3601:3691   */\n      swap2\n      swap1\n      pop\n      jump\t// out\n        /* \"#utility.yul\":3697:3806   */\n    tag_55:\n        /* \"#utility.yul\":3778:3799   */\n      tag_105\n        /* \"#utility.yul\":3793:3798   */\n      dup2\n        /* \"#utility.yul\":3778:3799   */\n      tag_54\n      jump\t// in\n    tag_105:\n        /* \"#utility.yul\":3773:3776   */\n      dup3\n        /* \"#utility.yul\":3766:3800   */\n      mstore\n        /* \"#utility.yul\":3697:3806   */\n      pop\n      pop\n      jump\t// out\n        /* \"#utility.yul\":3812:4022   */\n    tag_21:\n        /* \"#utility.yul\":3899:3903   */\n      0x00\n        /* \"#utility.yul\":3937:3939   */\n      0x20\n        /* \"#utility.yul\":3926:3935   */\n      dup3\n        /* \"#utility.yul\":3922:3940   */\n      add\n        /* \"#utility.yul\":3914:3940   */\n      swap1\n      pop\n        /* \"#utility.yul\":3950:4015   */\n      tag_107\n        /* \"#utility.yul\":4012:4013   */\n      0x00\n        /* \"#utility.yul\":4001:4010   */\n      dup4\n        /* \"#utility.yul\":3997:4014   */\n      add\n        /* \"#utility.yul\":3988:3994   */\n      dup5\n        /* \"#utility.yul\":3950:4015   */\n      tag_55\n      jump\t// in\n    tag_107:\n        /* \"#utility.yul\":3812:4022   */\n      swap3\n      swap2\n      pop\n      pop\n      jump\t// out\n        /* \"#utility.yul\":4028:4250   */\n    tag_25:\n        /* \"#utility.yul\":4121:4125   */\n      0x00\n        /* \"#utility.yul\":4159:4161   */\n      0x20\n        /* \"#utility.yul\":4148:4157   */\n      dup3\n        /* \"#utility.yul\":4144:4162   */\n      add\n        /* \"#utility.yul\":4136:4162   */\n      swap1\n      pop\n        /* \"#utility.yul\":4172:4243   */\n      tag_109\n        /* \"#utility.yul\":4240:4241   */\n      0x00\n        /* \"#utility.yul\":4229:4238   */\n      dup4\n        /* \"#utility.yul\":4225:4242   */\n      add\n        /* \"#utility.yul\":4216:4222   */\n      dup5\n        /* \"#utility.yul\":4172:4243   */\n      tag_44\n      jump\t// in\n    tag_109:\n        /* \"#utility.yul\":4028:4250   */\n      swap3\n      swap2\n      pop\n      pop\n      jump\t// out\n        /* \"#utility.yul\":4256:4436   */\n    tag_56:\n        /* \"#utility.yul\":4304:4381   */\n      0x4e487b7100000000000000000000000000000000000000000000000000000000\n        /* \"#utility.yul\":4301:4302   */\n      0x00\n        /* \"#utility.yul\":4294:4382   */\n      mstore\n        /* \"#utility.yul\":4401:4405   */\n      0x11\n        /* \"#utility.yul\":4398:4399   */\n      0x04\n        /* \"#utility.yul\":4391:4406   */\n      mstore\n        /* \"#utility.yul\":4425:4429   */\n      0x24\n        /* \"#utility.yul\":4422:4423   */\n      0x00\n        /* \"#utility.yul\":4415:4430   */\n      revert\n        /* \"#utility.yul\":4442:4675   */\n    tag_31:\n        /* \"#utility.yul\":4481:4484   */\n      0x00\n        /* \"#utility.yul\":4504:4528   */\n      tag_112\n        /* \"#utility.yul\":4522:4527   */\n      dup3\n        /* \"#utility.yul\":4504:4528   */\n      tag_41\n      jump\t// in\n    tag_112:\n        /* \"#utility.yul\":4495:4528   */\n      swap2\n      pop\n        /* \"#utility.yul\":4550:4616   */\n      0xffffffffffffffffffffffffffffffffffffffffffffffffffffffffffffffff\n        /* \"#utility.yul\":4543:4548   */\n      dup3\n        /* \"#utility.yul\":4540:4617   */\n      sub\n        /* \"#utility.yul\":4537:4640   */\n      tag_113\n      jumpi\n        /* \"#utility.yul\":4620:4638   */\n      tag_114\n      tag_56\n      jump\t// in\n    tag_114:\n        /* \"#utility.yul\":4537:4640   */\n    tag_113:\n        /* \"#utility.yul\":4667:4668   */\n      0x01\n        /* \"#utility.yul\":4660:4665   */\n      dup3\n        /* \"#utility.yul\":4656:4669   */\n      add\n        /* \"#utility.yul\":4649:4669   */\n      swap1\n      pop\n        /* \"#utility.yul\":4442:4675   */\n      swap2\n      swap1\n      pop\n      jump\t// out\n        /* \"#utility.yul\":4681:4861   */\n    tag_57:\n        /* \"#utility.yul\":4729:4806   */\n      0x4e487b7100000000000000000000000000000000000000000000000000000000\n        /* \"#utility.yul\":4726:4727   */\n      0x00\n        /* \"#utility.yul\":4719:4807   */\n      mstore\n        /* \"#utility.yul\":4826:4830   */\n      0x22\n        /* \"#utility.yul\":4823:4824   */\n      0x04\n        /* \"#utility.yul\":4816:4831   */\n      mstore\n        /* \"#utility.yul\":4850:4854   */\n      0x24\n        /* \"#utility.yul\":4847:4848   */\n      0x00\n        /* \"#utility.yul\":4840:4855   */\n      revert\n        /* \"#utility.yul\":4867:5187   */\n    tag_33:\n        /* \"#utility.yul\":4911:4917   */\n      0x00\n        /* \"#utility.yul\":4948:4949   */\n      0x02\n        /* \"#utility.yul\":4942:4946   */\n      dup3\n        /* \"#utility.yul\":4938:4950   */\n      div\n        /* \"#utility.yul\":4928:4950   */\n      swap1\n      pop\n        /* \"#utility.yul\":4995:4996   */\n      0x01\n        /* \"#utility.yul\":4989:4993   */\n      dup3\n        /* \"#utility.yul\":4985:4997   */\n      and\n        /* \"#utility.yul\":5016:5034   */\n      dup1\n        /* \"#utility.yul\":5006:5087   */\n      tag_117\n      jumpi\n        /* \"#utility.yul\":5072:5076   */\n      0x7f\n        /* \"#utility.yul\":5064:5070   */\n      dup3\n        /* \"#utility.yul\":5060:5077   */\n      and\n        /* \"#utility.yul\":5050:5077   */\n      swap2\n      pop\n        /* \"#utility.yul\":5006:5087   */\n    tag_117:\n        /* \"#utility.yul\":5134:5136   */\n      0x20\n        /* \"#utility.yul\":5126:5132   */\n      dup3\n        /* \"#utility.yul\":5123:5137   */\n      lt\n        /* \"#utility.yul\":5103:5121   */\n      dup2\n        /* \"#utility.yul\":5100:5138   */\n      sub\n        /* \"#utility.yul\":5097:5181   */\n      tag_118\n      jumpi\n        /* \"#utility.yul\":5153:5171   */\n      tag_119\n      tag_57\n      jump\t// in\n    tag_119:\n        /* \"#utility.yul\":5097:5181   */\n    tag_118:\n        /* \"#utility.yul\":4918:5187   */\n      pop\n        /* \"#utility.yul\":4867:5187   */\n      swap2\n      swap1\n      pop\n      jump\t// out\n\n    auxdata: 0xa2646970667358221220debe9fec773d5bcf67a02b3a519a88a6f0e6bbd56ba6d84f3cf06a340719dfb564736f6c634300080f0033\n}\n",
				"bytecode": {
					"linkReferences": {},
					"object": "60806040523480156200001157600080fd5b50620000586040518060400160405280600581526020017f416e6d6f6c0000000000000000000000000000000000000000000000000000008152506200017660201b60201c565b6200009e6040518060400160405280600481526020017f416e696b000000000000000000000000000000000000000000000000000000008152506200017660201b60201c565b620000e46040518060400160405280600781526020017f52616b73686974000000000000000000000000000000000000000000000000008152506200017660201b60201c565b6200012a6040518060400160405280600681526020017f6c696b68697400000000000000000000000000000000000000000000000000008152506200017660201b60201c565b620001706040518060400160405280600581526020017f68617273680000000000000000000000000000000000000000000000000000008152506200017660201b60201c565b620005d2565b600260008154809291906200018b906200022e565b9190505550604051806060016040528060025481526020018281526020016000815250600160006002548152602001908152602001600020600082015181600001556020820151816001019081620001e49190620004eb565b506040820151816002015590505050565b7f4e487b7100000000000000000000000000000000000000000000000000000000600052601160045260246000fd5b6000819050919050565b60006200023b8262000224565b91507fffffffffffffffffffffffffffffffffffffffffffffffffffffffffffffffff820362000270576200026f620001f5565b5b600182019050919050565b600081519050919050565b7f4e487b7100000000000000000000000000000000000000000000000000000000600052604160045260246000fd5b7f4e487b7100000000000000000000000000000000000000000000000000000000600052602260045260246000fd5b60006002820490506001821680620002fd57607f821691505b602082108103620003135762000312620002b5565b5b50919050565b60008190508160005260206000209050919050565b60006020601f8301049050919050565b600082821b905092915050565b6000600883026200037d7fffffffffffffffffffffffffffffffffffffffffffffffffffffffffffffffff826200033e565b6200038986836200033e565b95508019841693508086168417925050509392505050565b6000819050919050565b6000620003cc620003c6620003c08462000224565b620003a1565b62000224565b9050919050565b6000819050919050565b620003e883620003ab565b62000400620003f782620003d3565b8484546200034b565b825550505050565b600090565b6200041762000408565b62000424818484620003dd565b505050565b5b818110156200044c57620004406000826200040d565b6001810190506200042a565b5050565b601f8211156200049b57620004658162000319565b62000470846200032e565b8101602085101562000480578190505b620004986200048f856200032e565b83018262000429565b50505b505050565b600082821c905092915050565b6000620004c060001984600802620004a0565b1980831691505092915050565b6000620004db8383620004ad565b9150826002028217905092915050565b620004f6826200027b565b67ffffffffffffffff81111562000512576200051162000286565b5b6200051e8254620002e4565b6200052b82828562000450565b600060209050601f8311600181146200056357600084156200054e578287015190505b6200055a8582620004cd565b865550620005ca565b601f198416620005738662000319565b60005b828110156200059d5784890151825560018201915060208501945060208101905062000576565b86831015620005bd5784890151620005b9601f891682620004ad565b8355505b6001600288020188555050505b505050505050565b6105f380620005e26000396000f3fe608060405234801561001057600080fd5b506004361061004c5760003560e01c80630121b93f146100515780633477ee2e1461006d578063a3ec138d1461009f578063c8b94d69146100cf575b600080fd5b61006b600480360381019061006691906102f7565b6100ed565b005b610087600480360381019061008291906102f7565b6101e4565b604051610096939291906103cc565b60405180910390f35b6100b960048036038101906100b49190610468565b610296565b6040516100c691906104b0565b60405180910390f35b6100d76102b6565b6040516100e491906104cb565b60405180910390f35b6000803373ffffffffffffffffffffffffffffffffffffffff1673ffffffffffffffffffffffffffffffffffffffff16815260200190815260200160002060009054906101000a900460ff161561014357600080fd5b60008111801561015557506002548111155b61015e57600080fd5b60016000803373ffffffffffffffffffffffffffffffffffffffff1673ffffffffffffffffffffffffffffffffffffffff16815260200190815260200160002060006101000a81548160ff0219169083151502179055506001600082815260200190815260200160002060020160008154809291906101dc90610515565b919050555050565b600160205280600052604060002060009150905080600001549080600101805461020d9061058c565b80601f01602080910402602001604051908101604052809291908181526020018280546102399061058c565b80156102865780601f1061025b57610100808354040283529160200191610286565b820191906000526020600020905b81548152906001019060200180831161026957829003601f168201915b5050505050908060020154905083565b60006020528060005260406000206000915054906101000a900460ff1681565b60025481565b600080fd5b6000819050919050565b6102d4816102c1565b81146102df57600080fd5b50565b6000813590506102f1816102cb565b92915050565b60006020828403121561030d5761030c6102bc565b5b600061031b848285016102e2565b91505092915050565b61032d816102c1565b82525050565b600081519050919050565b600082825260208201905092915050565b60005b8381101561036d578082015181840152602081019050610352565b8381111561037c576000848401525b50505050565b6000601f19601f8301169050919050565b600061039e82610333565b6103a8818561033e565b93506103b881856020860161034f565b6103c181610382565b840191505092915050565b60006060820190506103e16000830186610324565b81810360208301526103f38185610393565b90506104026040830184610324565b949350505050565b600073ffffffffffffffffffffffffffffffffffffffff82169050919050565b60006104358261040a565b9050919050565b6104458161042a565b811461045057600080fd5b50565b6000813590506104628161043c565b92915050565b60006020828403121561047e5761047d6102bc565b5b600061048c84828501610453565b91505092915050565b60008115159050919050565b6104aa81610495565b82525050565b60006020820190506104c560008301846104a1565b92915050565b60006020820190506104e06000830184610324565b92915050565b7f4e487b7100000000000000000000000000000000000000000000000000000000600052601160045260246000fd5b6000610520826102c1565b91507fffffffffffffffffffffffffffffffffffffffffffffffffffffffffffffffff8203610552576105516104e6565b5b600182019050919050565b7f4e487b7100000000000000000000000000000000000000000000000000000000600052602260045260246000fd5b600060028204905060018216806105a457607f821691505b6020821081036105b7576105b661055d565b5b5091905056fea2646970667358221220debe9fec773d5bcf67a02b3a519a88a6f0e6bbd56ba6d84f3cf06a340719dfb564736f6c634300080f0033",
					"opcodes": "PUSH1 0x80 PUSH1 0x40 MSTORE CALLVALUE DUP1 ISZERO PUSH3 0x11 JUMPI PUSH1 0x0 DUP1 REVERT JUMPDEST POP PUSH3 0x58 PUSH1 0x40 MLOAD DUP1 PUSH1 0x40 ADD PUSH1 0x40 MSTORE DUP1 PUSH1 0x5 DUP2 MSTORE PUSH1 0x20 ADD PUSH32 0x416E6D6F6C000000000000000000000000000000000000000000000000000000 DUP2 MSTORE POP PUSH3 0x176 PUSH1 0x20 SHL PUSH1 0x20 SHR JUMP JUMPDEST PUSH3 0x9E PUSH1 0x40 MLOAD DUP1 PUSH1 0x40 ADD PUSH1 0x40 MSTORE DUP1 PUSH1 0x4 DUP2 MSTORE PUSH1 0x20 ADD PUSH32 0x416E696B00000000000000000000000000000000000000000000000000000000 DUP2 MSTORE POP PUSH3 0x176 PUSH1 0x20 SHL PUSH1 0x20 SHR JUMP JUMPDEST PUSH3 0xE4 PUSH1 0x40 MLOAD DUP1 PUSH1 0x40 ADD PUSH1 0x40 MSTORE DUP1 PUSH1 0x7 DUP2 MSTORE PUSH1 0x20 ADD PUSH32 0x52616B7368697400000000000000000000000000000000000000000000000000 DUP2 MSTORE POP PUSH3 0x176 PUSH1 0x20 SHL PUSH1 0x20 SHR JUMP JUMPDEST PUSH3 0x12A PUSH1 0x40 MLOAD DUP1 PUSH1 0x40 ADD PUSH1 0x40 MSTORE DUP1 PUSH1 0x6 DUP2 MSTORE PUSH1 0x20 ADD PUSH32 0x6C696B6869740000000000000000000000000000000000000000000000000000 DUP2 MSTORE POP PUSH3 0x176 PUSH1 0x20 SHL PUSH1 0x20 SHR JUMP JUMPDEST PUSH3 0x170 PUSH1 0x40 MLOAD DUP1 PUSH1 0x40 ADD PUSH1 0x40 MSTORE DUP1 PUSH1 0x5 DUP2 MSTORE PUSH1 0x20 ADD PUSH32 0x6861727368000000000000000000000000000000000000000000000000000000 DUP2 MSTORE POP PUSH3 0x176 PUSH1 0x20 SHL PUSH1 0x20 SHR JUMP JUMPDEST PUSH3 0x5D2 JUMP JUMPDEST PUSH1 0x2 PUSH1 0x0 DUP2 SLOAD DUP1 SWAP3 SWAP2 SWAP1 PUSH3 0x18B SWAP1 PUSH3 0x22E JUMP JUMPDEST SWAP2 SWAP1 POP SSTORE POP PUSH1 0x40 MLOAD DUP1 PUSH1 0x60 ADD PUSH1 0x40 MSTORE DUP1 PUSH1 0x2 SLOAD DUP2 MSTORE PUSH1 0x20 ADD DUP3 DUP2 MSTORE PUSH1 0x20 ADD PUSH1 0x0 DUP2 MSTORE POP PUSH1 0x1 PUSH1 0x0 PUSH1 0x2 SLOAD DUP2 MSTORE PUSH1 0x20 ADD SWAP1 DUP2 MSTORE PUSH1 0x20 ADD PUSH1 0x0 KECCAK256 PUSH1 0x0 DUP3 ADD MLOAD DUP2 PUSH1 0x0 ADD SSTORE PUSH1 0x20 DUP3 ADD MLOAD DUP2 PUSH1 0x1 ADD SWAP1 DUP2 PUSH3 0x1E4 SWAP2 SWAP1 PUSH3 0x4EB JUMP JUMPDEST POP PUSH1 0x40 DUP3 ADD MLOAD DUP2 PUSH1 0x2 ADD SSTORE SWAP1 POP POP POP JUMP JUMPDEST PUSH32 0x4E487B7100000000000000000000000000000000000000000000000000000000 PUSH1 0x0 MSTORE PUSH1 0x11 PUSH1 0x4 MSTORE PUSH1 0x24 PUSH1 0x0 REVERT JUMPDEST PUSH1 0x0 DUP2 SWAP1 POP SWAP2 SWAP1 POP JUMP JUMPDEST PUSH1 0x0 PUSH3 0x23B DUP3 PUSH3 0x224 JUMP JUMPDEST SWAP2 POP PUSH32 0xFFFFFFFFFFFFFFFFFFFFFFFFFFFFFFFFFFFFFFFFFFFFFFFFFFFFFFFFFFFFFFFF DUP3 SUB PUSH3 0x270 JUMPI PUSH3 0x26F PUSH3 0x1F5 JUMP JUMPDEST JUMPDEST PUSH1 0x1 DUP3 ADD SWAP1 POP SWAP2 SWAP1 POP JUMP JUMPDEST PUSH1 0x0 DUP2 MLOAD SWAP1 POP SWAP2 SWAP1 POP JUMP JUMPDEST PUSH32 0x4E487B7100000000000000000000000000000000000000000000000000000000 PUSH1 0x0 MSTORE PUSH1 0x41 PUSH1 0x4 MSTORE PUSH1 0x24 PUSH1 0x0 REVERT JUMPDEST PUSH32 0x4E487B7100000000000000000000000000000000000000000000000000000000 PUSH1 0x0 MSTORE PUSH1 0x22 PUSH1 0x4 MSTORE PUSH1 0x24 PUSH1 0x0 REVERT JUMPDEST PUSH1 0x0 PUSH1 0x2 DUP3 DIV SWAP1 POP PUSH1 0x1 DUP3 AND DUP1 PUSH3 0x2FD JUMPI PUSH1 0x7F DUP3 AND SWAP2 POP JUMPDEST PUSH1 0x20 DUP3 LT DUP2 SUB PUSH3 0x313 JUMPI PUSH3 0x312 PUSH3 0x2B5 JUMP JUMPDEST JUMPDEST POP SWAP2 SWAP1 POP JUMP JUMPDEST PUSH1 0x0 DUP2 SWAP1 POP DUP2 PUSH1 0x0 MSTORE PUSH1 0x20 PUSH1 0x0 KECCAK256 SWAP1 POP SWAP2 SWAP1 POP JUMP JUMPDEST PUSH1 0x0 PUSH1 0x20 PUSH1 0x1F DUP4 ADD DIV SWAP1 POP SWAP2 SWAP1 POP JUMP JUMPDEST PUSH1 0x0 DUP3 DUP3 SHL SWAP1 POP SWAP3 SWAP2 POP POP JUMP JUMPDEST PUSH1 0x0 PUSH1 0x8 DUP4 MUL PUSH3 0x37D PUSH32 0xFFFFFFFFFFFFFFFFFFFFFFFFFFFFFFFFFFFFFFFFFFFFFFFFFFFFFFFFFFFFFFFF DUP3 PUSH3 0x33E JUMP JUMPDEST PUSH3 0x389 DUP7 DUP4 PUSH3 0x33E JUMP JUMPDEST SWAP6 POP DUP1 NOT DUP5 AND SWAP4 POP DUP1 DUP7 AND DUP5 OR SWAP3 POP POP POP SWAP4 SWAP3 POP POP POP JUMP JUMPDEST PUSH1 0x0 DUP2 SWAP1 POP SWAP2 SWAP1 POP JUMP JUMPDEST PUSH1 0x0 PUSH3 0x3CC PUSH3 0x3C6 PUSH3 0x3C0 DUP5 PUSH3 0x224 JUMP JUMPDEST PUSH3 0x3A1 JUMP JUMPDEST PUSH3 0x224 JUMP JUMPDEST SWAP1 POP SWAP2 SWAP1 POP JUMP JUMPDEST PUSH1 0x0 DUP2 SWAP1 POP SWAP2 SWAP1 POP JUMP JUMPDEST PUSH3 0x3E8 DUP4 PUSH3 0x3AB JUMP JUMPDEST PUSH3 0x400 PUSH3 0x3F7 DUP3 PUSH3 0x3D3 JUMP JUMPDEST DUP5 DUP5 SLOAD PUSH3 0x34B JUMP JUMPDEST DUP3 SSTORE POP POP POP POP JUMP JUMPDEST PUSH1 0x0 SWAP1 JUMP JUMPDEST PUSH3 0x417 PUSH3 0x408 JUMP JUMPDEST PUSH3 0x424 DUP2 DUP5 DUP5 PUSH3 0x3DD JUMP JUMPDEST POP POP POP JUMP JUMPDEST JUMPDEST DUP2 DUP2 LT ISZERO PUSH3 0x44C JUMPI PUSH3 0x440 PUSH1 0x0 DUP3 PUSH3 0x40D JUMP JUMPDEST PUSH1 0x1 DUP2 ADD SWAP1 POP PUSH3 0x42A JUMP JUMPDEST POP POP JUMP JUMPDEST PUSH1 0x1F DUP3 GT ISZERO PUSH3 0x49B JUMPI PUSH3 0x465 DUP2 PUSH3 0x319 JUMP JUMPDEST PUSH3 0x470 DUP5 PUSH3 0x32E JUMP JUMPDEST DUP2 ADD PUSH1 0x20 DUP6 LT ISZERO PUSH3 0x480 JUMPI DUP2 SWAP1 POP JUMPDEST PUSH3 0x498 PUSH3 0x48F DUP6 PUSH3 0x32E JUMP JUMPDEST DUP4 ADD DUP3 PUSH3 0x429 JUMP JUMPDEST POP POP JUMPDEST POP POP POP JUMP JUMPDEST PUSH1 0x0 DUP3 DUP3 SHR SWAP1 POP SWAP3 SWAP2 POP POP JUMP JUMPDEST PUSH1 0x0 PUSH3 0x4C0 PUSH1 0x0 NOT DUP5 PUSH1 0x8 MUL PUSH3 0x4A0 JUMP JUMPDEST NOT DUP1 DUP4 AND SWAP2 POP POP SWAP3 SWAP2 POP POP JUMP JUMPDEST PUSH1 0x0 PUSH3 0x4DB DUP4 DUP4 PUSH3 0x4AD JUMP JUMPDEST SWAP2 POP DUP3 PUSH1 0x2 MUL DUP3 OR SWAP1 POP SWAP3 SWAP2 POP POP JUMP JUMPDEST PUSH3 0x4F6 DUP3 PUSH3 0x27B JUMP JUMPDEST PUSH8 0xFFFFFFFFFFFFFFFF DUP2 GT ISZERO PUSH3 0x512 JUMPI PUSH3 0x511 PUSH3 0x286 JUMP JUMPDEST JUMPDEST PUSH3 0x51E DUP3 SLOAD PUSH3 0x2E4 JUMP JUMPDEST PUSH3 0x52B DUP3 DUP3 DUP6 PUSH3 0x450 JUMP JUMPDEST PUSH1 0x0 PUSH1 0x20 SWAP1 POP PUSH1 0x1F DUP4 GT PUSH1 0x1 DUP2 EQ PUSH3 0x563 JUMPI PUSH1 0x0 DUP5 ISZERO PUSH3 0x54E JUMPI DUP3 DUP8 ADD MLOAD SWAP1 POP JUMPDEST PUSH3 0x55A DUP6 DUP3 PUSH3 0x4CD JUMP JUMPDEST DUP7 SSTORE POP PUSH3 0x5CA JUMP JUMPDEST PUSH1 0x1F NOT DUP5 AND PUSH3 0x573 DUP7 PUSH3 0x319 JUMP JUMPDEST PUSH1 0x0 JUMPDEST DUP3 DUP2 LT ISZERO PUSH3 0x59D JUMPI DUP5 DUP10 ADD MLOAD DUP3 SSTORE PUSH1 0x1 DUP3 ADD SWAP2 POP PUSH1 0x20 DUP6 ADD SWAP5 POP PUSH1 0x20 DUP2 ADD SWAP1 POP PUSH3 0x576 JUMP JUMPDEST DUP7 DUP4 LT ISZERO PUSH3 0x5BD JUMPI DUP5 DUP10 ADD MLOAD PUSH3 0x5B9 PUSH1 0x1F DUP10 AND DUP3 PUSH3 0x4AD JUMP JUMPDEST DUP4 SSTORE POP JUMPDEST PUSH1 0x1 PUSH1 0x2 DUP9 MUL ADD DUP9 SSTORE POP POP POP JUMPDEST POP POP POP POP POP POP JUMP JUMPDEST PUSH2 0x5F3 DUP1 PUSH3 0x5E2 PUSH1 0x0 CODECOPY PUSH1 0x0 RETURN INVALID PUSH1 0x80 PUSH1 0x40 MSTORE CALLVALUE DUP1 ISZERO PUSH2 0x10 JUMPI PUSH1 0x0 DUP1 REVERT JUMPDEST POP PUSH1 0x4 CALLDATASIZE LT PUSH2 0x4C JUMPI PUSH1 0x0 CALLDATALOAD PUSH1 0xE0 SHR DUP1 PUSH4 0x121B93F EQ PUSH2 0x51 JUMPI DUP1 PUSH4 0x3477EE2E EQ PUSH2 0x6D JUMPI DUP1 PUSH4 0xA3EC138D EQ PUSH2 0x9F JUMPI DUP1 PUSH4 0xC8B94D69 EQ PUSH2 0xCF JUMPI JUMPDEST PUSH1 0x0 DUP1 REVERT JUMPDEST PUSH2 0x6B PUSH1 0x4 DUP1 CALLDATASIZE SUB DUP2 ADD SWAP1 PUSH2 0x66 SWAP2 SWAP1 PUSH2 0x2F7 JUMP JUMPDEST PUSH2 0xED JUMP JUMPDEST STOP JUMPDEST PUSH2 0x87 PUSH1 0x4 DUP1 CALLDATASIZE SUB DUP2 ADD SWAP1 PUSH2 0x82 SWAP2 SWAP1 PUSH2 0x2F7 JUMP JUMPDEST PUSH2 0x1E4 JUMP JUMPDEST PUSH1 0x40 MLOAD PUSH2 0x96 SWAP4 SWAP3 SWAP2 SWAP1 PUSH2 0x3CC JUMP JUMPDEST PUSH1 0x40 MLOAD DUP1 SWAP2 SUB SWAP1 RETURN JUMPDEST PUSH2 0xB9 PUSH1 0x4 DUP1 CALLDATASIZE SUB DUP2 ADD SWAP1 PUSH2 0xB4 SWAP2 SWAP1 PUSH2 0x468 JUMP JUMPDEST PUSH2 0x296 JUMP JUMPDEST PUSH1 0x40 MLOAD PUSH2 0xC6 SWAP2 SWAP1 PUSH2 0x4B0 JUMP JUMPDEST PUSH1 0x40 MLOAD DUP1 SWAP2 SUB SWAP1 RETURN JUMPDEST PUSH2 0xD7 PUSH2 0x2B6 JUMP JUMPDEST PUSH1 0x40 MLOAD PUSH2 0xE4 SWAP2 SWAP1 PUSH2 0x4CB JUMP JUMPDEST PUSH1 0x40 MLOAD DUP1 SWAP2 SUB SWAP1 RETURN JUMPDEST PUSH1 0x0 DUP1 CALLER PUSH20 0xFFFFFFFFFFFFFFFFFFFFFFFFFFFFFFFFFFFFFFFF AND PUSH20 0xFFFFFFFFFFFFFFFFFFFFFFFFFFFFFFFFFFFFFFFF AND DUP2 MSTORE PUSH1 0x20 ADD SWAP1 DUP2 MSTORE PUSH1 0x20 ADD PUSH1 0x0 KECCAK256 PUSH1 0x0 SWAP1 SLOAD SWAP1 PUSH2 0x100 EXP SWAP1 DIV PUSH1 0xFF AND ISZERO PUSH2 0x143 JUMPI PUSH1 0x0 DUP1 REVERT JUMPDEST PUSH1 0x0 DUP2 GT DUP1 ISZERO PUSH2 0x155 JUMPI POP PUSH1 0x2 SLOAD DUP2 GT ISZERO JUMPDEST PUSH2 0x15E JUMPI PUSH1 0x0 DUP1 REVERT JUMPDEST PUSH1 0x1 PUSH1 0x0 DUP1 CALLER PUSH20 0xFFFFFFFFFFFFFFFFFFFFFFFFFFFFFFFFFFFFFFFF AND PUSH20 0xFFFFFFFFFFFFFFFFFFFFFFFFFFFFFFFFFFFFFFFF AND DUP2 MSTORE PUSH1 0x20 ADD SWAP1 DUP2 MSTORE PUSH1 0x20 ADD PUSH1 0x0 KECCAK256 PUSH1 0x0 PUSH2 0x100 EXP DUP2 SLOAD DUP2 PUSH1 0xFF MUL NOT AND SWAP1 DUP4 ISZERO ISZERO MUL OR SWAP1 SSTORE POP PUSH1 0x1 PUSH1 0x0 DUP3 DUP2 MSTORE PUSH1 0x20 ADD SWAP1 DUP2 MSTORE PUSH1 0x20 ADD PUSH1 0x0 KECCAK256 PUSH1 0x2 ADD PUSH1 0x0 DUP2 SLOAD DUP1 SWAP3 SWAP2 SWAP1 PUSH2 0x1DC SWAP1 PUSH2 0x515 JUMP JUMPDEST SWAP2 SWAP1 POP SSTORE POP POP JUMP JUMPDEST PUSH1 0x1 PUSH1 0x20 MSTORE DUP1 PUSH1 0x0 MSTORE PUSH1 0x40 PUSH1 0x0 KECCAK256 PUSH1 0x0 SWAP2 POP SWAP1 POP DUP1 PUSH1 0x0 ADD SLOAD SWAP1 DUP1 PUSH1 0x1 ADD DUP1 SLOAD PUSH2 0x20D SWAP1 PUSH2 0x58C JUMP JUMPDEST DUP1 PUSH1 0x1F ADD PUSH1 0x20 DUP1 SWAP2 DIV MUL PUSH1 0x20 ADD PUSH1 0x40 MLOAD SWAP1 DUP2 ADD PUSH1 0x40 MSTORE DUP1 SWAP3 SWAP2 SWAP1 DUP2 DUP2 MSTORE PUSH1 0x20 ADD DUP3 DUP1 SLOAD PUSH2 0x239 SWAP1 PUSH2 0x58C JUMP JUMPDEST DUP1 ISZERO PUSH2 0x286 JUMPI DUP1 PUSH1 0x1F LT PUSH2 0x25B JUMPI PUSH2 0x100 DUP1 DUP4 SLOAD DIV MUL DUP4 MSTORE SWAP2 PUSH1 0x20 ADD SWAP2 PUSH2 0x286 JUMP JUMPDEST DUP3 ADD SWAP2 SWAP1 PUSH1 0x0 MSTORE PUSH1 0x20 PUSH1 0x0 KECCAK256 SWAP1 JUMPDEST DUP2 SLOAD DUP2 MSTORE SWAP1 PUSH1 0x1 ADD SWAP1 PUSH1 0x20 ADD DUP1 DUP4 GT PUSH2 0x269 JUMPI DUP3 SWAP1 SUB PUSH1 0x1F AND DUP3 ADD SWAP2 JUMPDEST POP POP POP POP POP SWAP1 DUP1 PUSH1 0x2 ADD SLOAD SWAP1 POP DUP4 JUMP JUMPDEST PUSH1 0x0 PUSH1 0x20 MSTORE DUP1 PUSH1 0x0 MSTORE PUSH1 0x40 PUSH1 0x0 KECCAK256 PUSH1 0x0 SWAP2 POP SLOAD SWAP1 PUSH2 0x100 EXP SWAP1 DIV PUSH1 0xFF AND DUP2 JUMP JUMPDEST PUSH1 0x2 SLOAD DUP2 JUMP JUMPDEST PUSH1 0x0 DUP1 REVERT JUMPDEST PUSH1 0x0 DUP2 SWAP1 POP SWAP2 SWAP1 POP JUMP JUMPDEST PUSH2 0x2D4 DUP2 PUSH2 0x2C1 JUMP JUMPDEST DUP2 EQ PUSH2 0x2DF JUMPI PUSH1 0x0 DUP1 REVERT JUMPDEST POP JUMP JUMPDEST PUSH1 0x0 DUP2 CALLDATALOAD SWAP1 POP PUSH2 0x2F1 DUP2 PUSH2 0x2CB JUMP JUMPDEST SWAP3 SWAP2 POP POP JUMP JUMPDEST PUSH1 0x0 PUSH1 0x20 DUP3 DUP5 SUB SLT ISZERO PUSH2 0x30D JUMPI PUSH2 0x30C PUSH2 0x2BC JUMP JUMPDEST JUMPDEST PUSH1 0x0 PUSH2 0x31B DUP5 DUP3 DUP6 ADD PUSH2 0x2E2 JUMP JUMPDEST SWAP2 POP POP SWAP3 SWAP2 POP POP JUMP JUMPDEST PUSH2 0x32D DUP2 PUSH2 0x2C1 JUMP JUMPDEST DUP3 MSTORE POP POP JUMP JUMPDEST PUSH1 0x0 DUP2 MLOAD SWAP1 POP SWAP2 SWAP1 POP JUMP JUMPDEST PUSH1 0x0 DUP3 DUP3 MSTORE PUSH1 0x20 DUP3 ADD SWAP1 POP SWAP3 SWAP2 POP POP JUMP JUMPDEST PUSH1 0x0 JUMPDEST DUP4 DUP2 LT ISZERO PUSH2 0x36D JUMPI DUP1 DUP3 ADD MLOAD DUP2 DUP5 ADD MSTORE PUSH1 0x20 DUP2 ADD SWAP1 POP PUSH2 0x352 JUMP JUMPDEST DUP4 DUP2 GT ISZERO PUSH2 0x37C JUMPI PUSH1 0x0 DUP5 DUP5 ADD MSTORE JUMPDEST POP POP POP POP JUMP JUMPDEST PUSH1 0x0 PUSH1 0x1F NOT PUSH1 0x1F DUP4 ADD AND SWAP1 POP SWAP2 SWAP1 POP JUMP JUMPDEST PUSH1 0x0 PUSH2 0x39E DUP3 PUSH2 0x333 JUMP JUMPDEST PUSH2 0x3A8 DUP2 DUP6 PUSH2 0x33E JUMP JUMPDEST SWAP4 POP PUSH2 0x3B8 DUP2 DUP6 PUSH1 0x20 DUP7 ADD PUSH2 0x34F JUMP JUMPDEST PUSH2 0x3C1 DUP2 PUSH2 0x382 JUMP JUMPDEST DUP5 ADD SWAP2 POP POP SWAP3 SWAP2 POP POP JUMP JUMPDEST PUSH1 0x0 PUSH1 0x60 DUP3 ADD SWAP1 POP PUSH2 0x3E1 PUSH1 0x0 DUP4 ADD DUP7 PUSH2 0x324 JUMP JUMPDEST DUP2 DUP2 SUB PUSH1 0x20 DUP4 ADD MSTORE PUSH2 0x3F3 DUP2 DUP6 PUSH2 0x393 JUMP JUMPDEST SWAP1 POP PUSH2 0x402 PUSH1 0x40 DUP4 ADD DUP5 PUSH2 0x324 JUMP JUMPDEST SWAP5 SWAP4 POP POP POP POP JUMP JUMPDEST PUSH1 0x0 PUSH20 0xFFFFFFFFFFFFFFFFFFFFFFFFFFFFFFFFFFFFFFFF DUP3 AND SWAP1 POP SWAP2 SWAP1 POP JUMP JUMPDEST PUSH1 0x0 PUSH2 0x435 DUP3 PUSH2 0x40A JUMP JUMPDEST SWAP1 POP SWAP2 SWAP1 POP JUMP JUMPDEST PUSH2 0x445 DUP2 PUSH2 0x42A JUMP JUMPDEST DUP2 EQ PUSH2 0x450 JUMPI PUSH1 0x0 DUP1 REVERT JUMPDEST POP JUMP JUMPDEST PUSH1 0x0 DUP2 CALLDATALOAD SWAP1 POP PUSH2 0x462 DUP2 PUSH2 0x43C JUMP JUMPDEST SWAP3 SWAP2 POP POP JUMP JUMPDEST PUSH1 0x0 PUSH1 0x20 DUP3 DUP5 SUB SLT ISZERO PUSH2 0x47E JUMPI PUSH2 0x47D PUSH2 0x2BC JUMP JUMPDEST JUMPDEST PUSH1 0x0 PUSH2 0x48C DUP5 DUP3 DUP6 ADD PUSH2 0x453 JUMP JUMPDEST SWAP2 POP POP SWAP3 SWAP2 POP POP JUMP JUMPDEST PUSH1 0x0 DUP2 ISZERO ISZERO SWAP1 POP SWAP2 SWAP1 POP JUMP JUMPDEST PUSH2 0x4AA DUP2 PUSH2 0x495 JUMP JUMPDEST DUP3 MSTORE POP POP JUMP JUMPDEST PUSH1 0x0 PUSH1 0x20 DUP3 ADD SWAP1 POP PUSH2 0x4C5 PUSH1 0x0 DUP4 ADD DUP5 PUSH2 0x4A1 JUMP JUMPDEST SWAP3 SWAP2 POP POP JUMP JUMPDEST PUSH1 0x0 PUSH1 0x20 DUP3 ADD SWAP1 POP PUSH2 0x4E0 PUSH1 0x0 DUP4 ADD DUP5 PUSH2 0x324 JUMP JUMPDEST SWAP3 SWAP2 POP POP JUMP JUMPDEST PUSH32 0x4E487B7100000000000000000000000000000000000000000000000000000000 PUSH1 0x0 MSTORE PUSH1 0x11 PUSH1 0x4 MSTORE PUSH1 0x24 PUSH1 0x0 REVERT JUMPDEST PUSH1 0x0 PUSH2 0x520 DUP3 PUSH2 0x2C1 JUMP JUMPDEST SWAP2 POP PUSH32 0xFFFFFFFFFFFFFFFFFFFFFFFFFFFFFFFFFFFFFFFFFFFFFFFFFFFFFFFFFFFFFFFF DUP3 SUB PUSH2 0x552 JUMPI PUSH2 0x551 PUSH2 0x4E6 JUMP JUMPDEST JUMPDEST PUSH1 0x1 DUP3 ADD SWAP1 POP SWAP2 SWAP1 POP JUMP JUMPDEST PUSH32 0x4E487B7100000000000000000000000000000000000000000000000000000000 PUSH1 0x0 MSTORE PUSH1 0x22 PUSH1 0x4 MSTORE PUSH1 0x24 PUSH1 0x0 REVERT JUMPDEST PUSH1 0x0 PUSH1 0x2 DUP3 DIV SWAP1 POP PUSH1 0x1 DUP3 AND DUP1 PUSH2 0x5A4 JUMPI PUSH1 0x7F DUP3 AND SWAP2 POP JUMPDEST PUSH1 0x20 DUP3 LT DUP2 SUB PUSH2 0x5B7 JUMPI PUSH2 0x5B6 PUSH2 0x55D JUMP JUMPDEST JUMPDEST POP SWAP2 SWAP1 POP JUMP INVALID LOG2 PUSH5 0x6970667358 0x22 SLT KECCAK256 0xDE 0xBE SWAP16 0xEC PUSH24 0x3D5BCF67A02B3A519A88A6F0E6BBD56BA6D84F3CF06A3407 NOT 0xDF 0xB5 PUSH5 0x736F6C6343 STOP ADDMOD 0xF STOP CALLER "
				},
				"gasEstimates": {
					"creation": {
						"codeDepositCost": "304600",
						"executionCost": "infinite",
						"totalCost": "infinite"
					},
					"external": {
						"candidatecount()": "2473",
						"candidates(uint256)": "infinite",
						"vote(uint256)": "infinite",
						"voters(address)": "2867"
					},
					"internal": {
						"newCandidate(string memory)": "infinite"
					}
				},
				"methodIdentifiers": {
					"candidatecount()": "c8b94d69",
					"candidates(uint256)": "3477ee2e",
					"vote(uint256)": "0121b93f",
					"voters(address)": "a3ec138d"
				}
			},
			"storageLayout": {
				"storage": [
					{
						"astId": 12,
						"contract": "voting.sol:Voting",
						"label": "voters",
						"offset": 0,
						"slot": "0",
						"type": "t_mapping(t_address,t_bool)"
					},
					{
						"astId": 17,
						"contract": "voting.sol:Voting",
						"label": "candidates",
						"offset": 0,
						"slot": "1",
						"type": "t_mapping(t_uint256,t_struct(Candidate)8_storage)"
					},
					{
						"astId": 19,
						"contract": "voting.sol:Voting",
						"label": "candidatecount",
						"offset": 0,
						"slot": "2",
						"type": "t_uint256"
					}
				],
				"types": {
					"t_address": {
						"encoding": "inplace",
						"label": "address",
						"numberOfBytes": "20"
					},
					"t_bool": {
						"encoding": "inplace",
						"label": "bool",
						"numberOfBytes": "1"
					},
					"t_mapping(t_address,t_bool)": {
						"encoding": "mapping",
						"key": "t_address",
						"label": "mapping(address => bool)",
						"numberOfBytes": "32",
						"value": "t_bool"
					},
					"t_mapping(t_uint256,t_struct(Candidate)8_storage)": {
						"encoding": "mapping",
						"key": "t_uint256",
						"label": "mapping(uint256 => struct Voting.Candidate)",
						"numberOfBytes": "32",
						"value": "t_struct(Candidate)8_storage"
					},
					"t_string_storage": {
						"encoding": "bytes",
						"label": "string",
						"numberOfBytes": "32"
					},
					"t_struct(Candidate)8_storage": {
						"encoding": "inplace",
						"label": "struct Voting.Candidate",
						"members": [
							{
								"astId": 3,
								"contract": "voting.sol:Voting",
								"label": "id",
								"offset": 0,
								"slot": "0",
								"type": "t_uint256"
							},
							{
								"astId": 5,
								"contract": "voting.sol:Voting",
								"label": "name",
								"offset": 0,
								"slot": "1",
								"type": "t_string_storage"
							},
							{
								"astId": 7,
								"contract": "voting.sol:Voting",
								"label": "votecount",
								"offset": 0,
								"slot": "2",
								"type": "t_uint256"
							}
						],
						"numberOfBytes": "96"
					},
					"t_uint256": {
						"encoding": "inplace",
						"label": "uint256",
						"numberOfBytes": "32"
					}
				}
			},
			"userdoc": {
				"kind": "user",
				"methods": {},
				"version": 1
			}
		}
	}
}